{
	"contracts/2_monthStore.sol": {
		"MonthStore": {
			"abi": [
				{
					"inputs": [
						{
							"internalType": "string",
							"name": "_monthName",
							"type": "string"
						}
					],
					"name": "addMonth",
					"outputs": [],
					"stateMutability": "nonpayable",
					"type": "function"
				},
				{
					"inputs": [
						{
							"internalType": "uint256",
							"name": "_num",
							"type": "uint256"
						}
					],
					"name": "getMonth",
					"outputs": [
						{
							"internalType": "string",
							"name": "",
							"type": "string"
						}
					],
					"stateMutability": "view",
					"type": "function"
				}
			],
			"devdoc": {
				"kind": "dev",
				"methods": {},
				"version": 1
			},
			"evm": {
				"assembly": "    /* \"contracts/2_monthStore.sol\":62:385  contract MonthStore {\r... */\n  mstore(0x40, 0x80)\n    /* \"contracts/2_monthStore.sol\":139:140  0 */\n  0x00\n    /* \"contracts/2_monthStore.sol\":126:140  uint count = 0 */\n  0x01\n  sstore\n    /* \"contracts/2_monthStore.sol\":62:385  contract MonthStore {\r... */\n  callvalue\n  dup1\n  iszero\n  tag_1\n  jumpi\n  0x00\n  dup1\n  revert\ntag_1:\n  pop\n  dataSize(sub_0)\n  dup1\n  dataOffset(sub_0)\n  0x00\n  codecopy\n  0x00\n  return\nstop\n\nsub_0: assembly {\n        /* \"contracts/2_monthStore.sol\":62:385  contract MonthStore {\r... */\n      mstore(0x40, 0x80)\n      callvalue\n      dup1\n      iszero\n      tag_1\n      jumpi\n      0x00\n      dup1\n      revert\n    tag_1:\n      pop\n      jumpi(tag_2, lt(calldatasize, 0x04))\n      shr(0xe0, calldataload(0x00))\n      dup1\n      0x340a8f6e\n      eq\n      tag_3\n      jumpi\n      dup1\n      0xa324ad24\n      eq\n      tag_4\n      jumpi\n    tag_2:\n      0x00\n      dup1\n      revert\n        /* \"contracts/2_monthStore.sol\":147:271  function addMonth(string memory _monthName) public {\r... */\n    tag_3:\n      tag_5\n      0x04\n      dup1\n      calldatasize\n      sub\n      dup2\n      add\n      swap1\n      tag_6\n      swap2\n      swap1\n      tag_7\n      jump\t// in\n    tag_6:\n      tag_8\n      jump\t// in\n    tag_5:\n      stop\n        /* \"contracts/2_monthStore.sol\":279:382  function getMonth(uint _num) public view returns(string memory){\r... */\n    tag_4:\n      tag_9\n      0x04\n      dup1\n      calldatasize\n      sub\n      dup2\n      add\n      swap1\n      tag_10\n      swap2\n      swap1\n      tag_11\n      jump\t// in\n    tag_10:\n      tag_12\n      jump\t// in\n    tag_9:\n      mload(0x40)\n      tag_13\n      swap2\n      swap1\n      tag_14\n      jump\t// in\n    tag_13:\n      mload(0x40)\n      dup1\n      swap2\n      sub\n      swap1\n      return\n        /* \"contracts/2_monthStore.sol\":147:271  function addMonth(string memory _monthName) public {\r... */\n    tag_8:\n        /* \"contracts/2_monthStore.sol\":225:226  1 */\n      0x01\n        /* \"contracts/2_monthStore.sol\":217:222  count */\n      dup1\n      sload\n        /* \"contracts/2_monthStore.sol\":217:226  count + 1 */\n      tag_16\n      swap2\n      swap1\n      tag_17\n      jump\t// in\n    tag_16:\n        /* \"contracts/2_monthStore.sol\":209:214  count */\n      0x01\n        /* \"contracts/2_monthStore.sol\":209:226  count = count + 1 */\n      dup2\n      swap1\n      sstore\n      pop\n        /* \"contracts/2_monthStore.sol\":253:263  _monthName */\n      dup1\n        /* \"contracts/2_monthStore.sol\":237:243  months */\n      0x00\n        /* \"contracts/2_monthStore.sol\":237:250  months[count] */\n      dup1\n        /* \"contracts/2_monthStore.sol\":244:249  count */\n      sload(0x01)\n        /* \"contracts/2_monthStore.sol\":237:250  months[count] */\n      dup2\n      mstore\n      0x20\n      add\n      swap1\n      dup2\n      mstore\n      0x20\n      add\n      0x00\n      keccak256\n        /* \"contracts/2_monthStore.sol\":237:263  months[count] = _monthName */\n      swap1\n      dup1\n      mload\n      swap1\n      0x20\n      add\n      swap1\n      tag_18\n      swap3\n      swap2\n      swap1\n      tag_19\n      jump\t// in\n    tag_18:\n      pop\n        /* \"contracts/2_monthStore.sol\":147:271  function addMonth(string memory _monthName) public {\r... */\n      pop\n      jump\t// out\n        /* \"contracts/2_monthStore.sol\":279:382  function getMonth(uint _num) public view returns(string memory){\r... */\n    tag_12:\n        /* \"contracts/2_monthStore.sol\":328:341  string memory */\n      0x60\n        /* \"contracts/2_monthStore.sol\":361:367  months */\n      0x00\n        /* \"contracts/2_monthStore.sol\":361:373  months[_num] */\n      dup1\n        /* \"contracts/2_monthStore.sol\":368:372  _num */\n      dup4\n        /* \"contracts/2_monthStore.sol\":361:373  months[_num] */\n      dup2\n      mstore\n      0x20\n      add\n      swap1\n      dup2\n      mstore\n      0x20\n      add\n      0x00\n      keccak256\n        /* \"contracts/2_monthStore.sol\":353:374  return (months[_num]) */\n      dup1\n      sload\n      tag_21\n      swap1\n      tag_22\n      jump\t// in\n    tag_21:\n      dup1\n      0x1f\n      add\n      0x20\n      dup1\n      swap2\n      div\n      mul\n      0x20\n      add\n      mload(0x40)\n      swap1\n      dup2\n      add\n      0x40\n      mstore\n      dup1\n      swap3\n      swap2\n      swap1\n      dup2\n      dup2\n      mstore\n      0x20\n      add\n      dup3\n      dup1\n      sload\n      tag_23\n      swap1\n      tag_22\n      jump\t// in\n    tag_23:\n      dup1\n      iszero\n      tag_24\n      jumpi\n      dup1\n      0x1f\n      lt\n      tag_25\n      jumpi\n      0x0100\n      dup1\n      dup4\n      sload\n      div\n      mul\n      dup4\n      mstore\n      swap2\n      0x20\n      add\n      swap2\n      jump(tag_24)\n    tag_25:\n      dup3\n      add\n      swap2\n      swap1\n      0x00\n      mstore\n      keccak256(0x00, 0x20)\n      swap1\n    tag_26:\n      dup2\n      sload\n      dup2\n      mstore\n      swap1\n      0x01\n      add\n      swap1\n      0x20\n      add\n      dup1\n      dup4\n      gt\n      tag_26\n      jumpi\n      dup3\n      swap1\n      sub\n      0x1f\n      and\n      dup3\n      add\n      swap2\n    tag_24:\n      pop\n      pop\n      pop\n      pop\n      pop\n      swap1\n      pop\n        /* \"contracts/2_monthStore.sol\":279:382  function getMonth(uint _num) public view returns(string memory){\r... */\n      swap2\n      swap1\n      pop\n      jump\t// out\n    tag_19:\n      dup3\n      dup1\n      sload\n      tag_27\n      swap1\n      tag_22\n      jump\t// in\n    tag_27:\n      swap1\n      0x00\n      mstore\n      keccak256(0x00, 0x20)\n      swap1\n      0x1f\n      add\n      0x20\n      swap1\n      div\n      dup2\n      add\n      swap3\n      dup3\n      tag_29\n      jumpi\n      0x00\n      dup6\n      sstore\n      jump(tag_28)\n    tag_29:\n      dup3\n      0x1f\n      lt\n      tag_30\n      jumpi\n      dup1\n      mload\n      not(0xff)\n      and\n      dup4\n      dup1\n      add\n      or\n      dup6\n      sstore\n      jump(tag_28)\n    tag_30:\n      dup3\n      dup1\n      add\n      0x01\n      add\n      dup6\n      sstore\n      dup3\n      iszero\n      tag_28\n      jumpi\n      swap2\n      dup3\n      add\n    tag_31:\n      dup3\n      dup2\n      gt\n      iszero\n      tag_32\n      jumpi\n      dup3\n      mload\n      dup3\n      sstore\n      swap2\n      0x20\n      add\n      swap2\n      swap1\n      0x01\n      add\n      swap1\n      jump(tag_31)\n    tag_32:\n    tag_28:\n      pop\n      swap1\n      pop\n      tag_33\n      swap2\n      swap1\n      tag_34\n      jump\t// in\n    tag_33:\n      pop\n      swap1\n      jump\t// out\n    tag_34:\n    tag_35:\n      dup1\n      dup3\n      gt\n      iszero\n      tag_36\n      jumpi\n      0x00\n      dup2\n      0x00\n      swap1\n      sstore\n      pop\n      0x01\n      add\n      jump(tag_35)\n    tag_36:\n      pop\n      swap1\n      jump\t// out\n        /* \"#utility.yul\":7:419   */\n    tag_38:\n        /* \"#utility.yul\":85:90   */\n      0x00\n        /* \"#utility.yul\":110:176   */\n      tag_40\n        /* \"#utility.yul\":126:175   */\n      tag_41\n        /* \"#utility.yul\":168:174   */\n      dup5\n        /* \"#utility.yul\":126:175   */\n      tag_42\n      jump\t// in\n    tag_41:\n        /* \"#utility.yul\":110:176   */\n      tag_43\n      jump\t// in\n    tag_40:\n        /* \"#utility.yul\":101:176   */\n      swap1\n      pop\n        /* \"#utility.yul\":199:205   */\n      dup3\n        /* \"#utility.yul\":192:197   */\n      dup2\n        /* \"#utility.yul\":185:206   */\n      mstore\n        /* \"#utility.yul\":237:241   */\n      0x20\n        /* \"#utility.yul\":230:235   */\n      dup2\n        /* \"#utility.yul\":226:242   */\n      add\n        /* \"#utility.yul\":275:278   */\n      dup5\n        /* \"#utility.yul\":266:272   */\n      dup5\n        /* \"#utility.yul\":261:264   */\n      dup5\n        /* \"#utility.yul\":257:273   */\n      add\n        /* \"#utility.yul\":254:279   */\n      gt\n        /* \"#utility.yul\":251:363   */\n      iszero\n      tag_44\n      jumpi\n        /* \"#utility.yul\":282:361   */\n      tag_45\n      tag_46\n      jump\t// in\n    tag_45:\n        /* \"#utility.yul\":251:363   */\n    tag_44:\n        /* \"#utility.yul\":372:413   */\n      tag_47\n        /* \"#utility.yul\":406:412   */\n      dup5\n        /* \"#utility.yul\":401:404   */\n      dup3\n        /* \"#utility.yul\":396:399   */\n      dup6\n        /* \"#utility.yul\":372:413   */\n      tag_48\n      jump\t// in\n    tag_47:\n        /* \"#utility.yul\":91:419   */\n      pop\n        /* \"#utility.yul\":7:419   */\n      swap4\n      swap3\n      pop\n      pop\n      pop\n      jump\t// out\n        /* \"#utility.yul\":439:779   */\n    tag_49:\n        /* \"#utility.yul\":495:500   */\n      0x00\n        /* \"#utility.yul\":544:547   */\n      dup3\n        /* \"#utility.yul\":537:541   */\n      0x1f\n        /* \"#utility.yul\":529:535   */\n      dup4\n        /* \"#utility.yul\":525:542   */\n      add\n        /* \"#utility.yul\":521:548   */\n      slt\n        /* \"#utility.yul\":511:633   */\n      tag_51\n      jumpi\n        /* \"#utility.yul\":552:631   */\n      tag_52\n      tag_53\n      jump\t// in\n    tag_52:\n        /* \"#utility.yul\":511:633   */\n    tag_51:\n        /* \"#utility.yul\":669:675   */\n      dup2\n        /* \"#utility.yul\":656:676   */\n      calldataload\n        /* \"#utility.yul\":694:773   */\n      tag_54\n        /* \"#utility.yul\":769:772   */\n      dup5\n        /* \"#utility.yul\":761:767   */\n      dup3\n        /* \"#utility.yul\":754:758   */\n      0x20\n        /* \"#utility.yul\":746:752   */\n      dup7\n        /* \"#utility.yul\":742:759   */\n      add\n        /* \"#utility.yul\":694:773   */\n      tag_38\n      jump\t// in\n    tag_54:\n        /* \"#utility.yul\":685:773   */\n      swap2\n      pop\n        /* \"#utility.yul\":501:779   */\n      pop\n        /* \"#utility.yul\":439:779   */\n      swap3\n      swap2\n      pop\n      pop\n      jump\t// out\n        /* \"#utility.yul\":785:924   */\n    tag_55:\n        /* \"#utility.yul\":831:836   */\n      0x00\n        /* \"#utility.yul\":869:875   */\n      dup2\n        /* \"#utility.yul\":856:876   */\n      calldataload\n        /* \"#utility.yul\":847:876   */\n      swap1\n      pop\n        /* \"#utility.yul\":885:918   */\n      tag_57\n        /* \"#utility.yul\":912:917   */\n      dup2\n        /* \"#utility.yul\":885:918   */\n      tag_58\n      jump\t// in\n    tag_57:\n        /* \"#utility.yul\":785:924   */\n      swap3\n      swap2\n      pop\n      pop\n      jump\t// out\n        /* \"#utility.yul\":930:1439   */\n    tag_7:\n        /* \"#utility.yul\":999:1005   */\n      0x00\n        /* \"#utility.yul\":1048:1050   */\n      0x20\n        /* \"#utility.yul\":1036:1045   */\n      dup3\n        /* \"#utility.yul\":1027:1034   */\n      dup5\n        /* \"#utility.yul\":1023:1046   */\n      sub\n        /* \"#utility.yul\":1019:1051   */\n      slt\n        /* \"#utility.yul\":1016:1135   */\n      iszero\n      tag_60\n      jumpi\n        /* \"#utility.yul\":1054:1133   */\n      tag_61\n      tag_62\n      jump\t// in\n    tag_61:\n        /* \"#utility.yul\":1016:1135   */\n    tag_60:\n        /* \"#utility.yul\":1202:1203   */\n      0x00\n        /* \"#utility.yul\":1191:1200   */\n      dup3\n        /* \"#utility.yul\":1187:1204   */\n      add\n        /* \"#utility.yul\":1174:1205   */\n      calldataload\n        /* \"#utility.yul\":1232:1250   */\n      0xffffffffffffffff\n        /* \"#utility.yul\":1224:1230   */\n      dup2\n        /* \"#utility.yul\":1221:1251   */\n      gt\n        /* \"#utility.yul\":1218:1335   */\n      iszero\n      tag_63\n      jumpi\n        /* \"#utility.yul\":1254:1333   */\n      tag_64\n      tag_65\n      jump\t// in\n    tag_64:\n        /* \"#utility.yul\":1218:1335   */\n    tag_63:\n        /* \"#utility.yul\":1359:1422   */\n      tag_66\n        /* \"#utility.yul\":1414:1421   */\n      dup5\n        /* \"#utility.yul\":1405:1411   */\n      dup3\n        /* \"#utility.yul\":1394:1403   */\n      dup6\n        /* \"#utility.yul\":1390:1412   */\n      add\n        /* \"#utility.yul\":1359:1422   */\n      tag_49\n      jump\t// in\n    tag_66:\n        /* \"#utility.yul\":1349:1422   */\n      swap2\n      pop\n        /* \"#utility.yul\":1145:1432   */\n      pop\n        /* \"#utility.yul\":930:1439   */\n      swap3\n      swap2\n      pop\n      pop\n      jump\t// out\n        /* \"#utility.yul\":1445:1774   */\n    tag_11:\n        /* \"#utility.yul\":1504:1510   */\n      0x00\n        /* \"#utility.yul\":1553:1555   */\n      0x20\n        /* \"#utility.yul\":1541:1550   */\n      dup3\n        /* \"#utility.yul\":1532:1539   */\n      dup5\n        /* \"#utility.yul\":1528:1551   */\n      sub\n        /* \"#utility.yul\":1524:1556   */\n      slt\n        /* \"#utility.yul\":1521:1640   */\n      iszero\n      tag_68\n      jumpi\n        /* \"#utility.yul\":1559:1638   */\n      tag_69\n      tag_62\n      jump\t// in\n    tag_69:\n        /* \"#utility.yul\":1521:1640   */\n    tag_68:\n        /* \"#utility.yul\":1679:1680   */\n      0x00\n        /* \"#utility.yul\":1704:1757   */\n      tag_70\n        /* \"#utility.yul\":1749:1756   */\n      dup5\n        /* \"#utility.yul\":1740:1746   */\n      dup3\n        /* \"#utility.yul\":1729:1738   */\n      dup6\n        /* \"#utility.yul\":1725:1747   */\n      add\n        /* \"#utility.yul\":1704:1757   */\n      tag_55\n      jump\t// in\n    tag_70:\n        /* \"#utility.yul\":1694:1757   */\n      swap2\n      pop\n        /* \"#utility.yul\":1650:1767   */\n      pop\n        /* \"#utility.yul\":1445:1774   */\n      swap3\n      swap2\n      pop\n      pop\n      jump\t// out\n        /* \"#utility.yul\":1780:2144   */\n    tag_71:\n        /* \"#utility.yul\":1868:1871   */\n      0x00\n        /* \"#utility.yul\":1896:1935   */\n      tag_73\n        /* \"#utility.yul\":1929:1934   */\n      dup3\n        /* \"#utility.yul\":1896:1935   */\n      tag_74\n      jump\t// in\n    tag_73:\n        /* \"#utility.yul\":1951:2022   */\n      tag_75\n        /* \"#utility.yul\":2015:2021   */\n      dup2\n        /* \"#utility.yul\":2010:2013   */\n      dup6\n        /* \"#utility.yul\":1951:2022   */\n      tag_76\n      jump\t// in\n    tag_75:\n        /* \"#utility.yul\":1944:2022   */\n      swap4\n      pop\n        /* \"#utility.yul\":2031:2083   */\n      tag_77\n        /* \"#utility.yul\":2076:2082   */\n      dup2\n        /* \"#utility.yul\":2071:2074   */\n      dup6\n        /* \"#utility.yul\":2064:2068   */\n      0x20\n        /* \"#utility.yul\":2057:2062   */\n      dup7\n        /* \"#utility.yul\":2053:2069   */\n      add\n        /* \"#utility.yul\":2031:2083   */\n      tag_78\n      jump\t// in\n    tag_77:\n        /* \"#utility.yul\":2108:2137   */\n      tag_79\n        /* \"#utility.yul\":2130:2136   */\n      dup2\n        /* \"#utility.yul\":2108:2137   */\n      tag_80\n      jump\t// in\n    tag_79:\n        /* \"#utility.yul\":2103:2106   */\n      dup5\n        /* \"#utility.yul\":2099:2138   */\n      add\n        /* \"#utility.yul\":2092:2138   */\n      swap2\n      pop\n        /* \"#utility.yul\":1872:2144   */\n      pop\n        /* \"#utility.yul\":1780:2144   */\n      swap3\n      swap2\n      pop\n      pop\n      jump\t// out\n        /* \"#utility.yul\":2150:2463   */\n    tag_14:\n        /* \"#utility.yul\":2263:2267   */\n      0x00\n        /* \"#utility.yul\":2301:2303   */\n      0x20\n        /* \"#utility.yul\":2290:2299   */\n      dup3\n        /* \"#utility.yul\":2286:2304   */\n      add\n        /* \"#utility.yul\":2278:2304   */\n      swap1\n      pop\n        /* \"#utility.yul\":2350:2359   */\n      dup2\n        /* \"#utility.yul\":2344:2348   */\n      dup2\n        /* \"#utility.yul\":2340:2360   */\n      sub\n        /* \"#utility.yul\":2336:2337   */\n      0x00\n        /* \"#utility.yul\":2325:2334   */\n      dup4\n        /* \"#utility.yul\":2321:2338   */\n      add\n        /* \"#utility.yul\":2314:2361   */\n      mstore\n        /* \"#utility.yul\":2378:2456   */\n      tag_82\n        /* \"#utility.yul\":2451:2455   */\n      dup2\n        /* \"#utility.yul\":2442:2448   */\n      dup5\n        /* \"#utility.yul\":2378:2456   */\n      tag_71\n      jump\t// in\n    tag_82:\n        /* \"#utility.yul\":2370:2456   */\n      swap1\n      pop\n        /* \"#utility.yul\":2150:2463   */\n      swap3\n      swap2\n      pop\n      pop\n      jump\t// out\n        /* \"#utility.yul\":2469:2598   */\n    tag_43:\n        /* \"#utility.yul\":2503:2509   */\n      0x00\n        /* \"#utility.yul\":2530:2550   */\n      tag_84\n      tag_85\n      jump\t// in\n    tag_84:\n        /* \"#utility.yul\":2520:2550   */\n      swap1\n      pop\n        /* \"#utility.yul\":2559:2592   */\n      tag_86\n        /* \"#utility.yul\":2587:2591   */\n      dup3\n        /* \"#utility.yul\":2579:2585   */\n      dup3\n        /* \"#utility.yul\":2559:2592   */\n      tag_87\n      jump\t// in\n    tag_86:\n        /* \"#utility.yul\":2469:2598   */\n      swap2\n      swap1\n      pop\n      jump\t// out\n        /* \"#utility.yul\":2604:2679   */\n    tag_85:\n        /* \"#utility.yul\":2637:2643   */\n      0x00\n        /* \"#utility.yul\":2670:2672   */\n      0x40\n        /* \"#utility.yul\":2664:2673   */\n      mload\n        /* \"#utility.yul\":2654:2673   */\n      swap1\n      pop\n        /* \"#utility.yul\":2604:2679   */\n      swap1\n      jump\t// out\n        /* \"#utility.yul\":2685:2993   */\n    tag_42:\n        /* \"#utility.yul\":2747:2751   */\n      0x00\n        /* \"#utility.yul\":2837:2855   */\n      0xffffffffffffffff\n        /* \"#utility.yul\":2829:2835   */\n      dup3\n        /* \"#utility.yul\":2826:2856   */\n      gt\n        /* \"#utility.yul\":2823:2879   */\n      iszero\n      tag_90\n      jumpi\n        /* \"#utility.yul\":2859:2877   */\n      tag_91\n      tag_92\n      jump\t// in\n    tag_91:\n        /* \"#utility.yul\":2823:2879   */\n    tag_90:\n        /* \"#utility.yul\":2897:2926   */\n      tag_93\n        /* \"#utility.yul\":2919:2925   */\n      dup3\n        /* \"#utility.yul\":2897:2926   */\n      tag_80\n      jump\t// in\n    tag_93:\n        /* \"#utility.yul\":2889:2926   */\n      swap1\n      pop\n        /* \"#utility.yul\":2981:2985   */\n      0x20\n        /* \"#utility.yul\":2975:2979   */\n      dup2\n        /* \"#utility.yul\":2971:2986   */\n      add\n        /* \"#utility.yul\":2963:2986   */\n      swap1\n      pop\n        /* \"#utility.yul\":2685:2993   */\n      swap2\n      swap1\n      pop\n      jump\t// out\n        /* \"#utility.yul\":2999:3098   */\n    tag_74:\n        /* \"#utility.yul\":3051:3057   */\n      0x00\n        /* \"#utility.yul\":3085:3090   */\n      dup2\n        /* \"#utility.yul\":3079:3091   */\n      mload\n        /* \"#utility.yul\":3069:3091   */\n      swap1\n      pop\n        /* \"#utility.yul\":2999:3098   */\n      swap2\n      swap1\n      pop\n      jump\t// out\n        /* \"#utility.yul\":3104:3273   */\n    tag_76:\n        /* \"#utility.yul\":3188:3199   */\n      0x00\n        /* \"#utility.yul\":3222:3228   */\n      dup3\n        /* \"#utility.yul\":3217:3220   */\n      dup3\n        /* \"#utility.yul\":3210:3229   */\n      mstore\n        /* \"#utility.yul\":3262:3266   */\n      0x20\n        /* \"#utility.yul\":3257:3260   */\n      dup3\n        /* \"#utility.yul\":3253:3267   */\n      add\n        /* \"#utility.yul\":3238:3267   */\n      swap1\n      pop\n        /* \"#utility.yul\":3104:3273   */\n      swap3\n      swap2\n      pop\n      pop\n      jump\t// out\n        /* \"#utility.yul\":3279:3584   */\n    tag_17:\n        /* \"#utility.yul\":3319:3322   */\n      0x00\n        /* \"#utility.yul\":3338:3358   */\n      tag_97\n        /* \"#utility.yul\":3356:3357   */\n      dup3\n        /* \"#utility.yul\":3338:3358   */\n      tag_98\n      jump\t// in\n    tag_97:\n        /* \"#utility.yul\":3333:3358   */\n      swap2\n      pop\n        /* \"#utility.yul\":3372:3392   */\n      tag_99\n        /* \"#utility.yul\":3390:3391   */\n      dup4\n        /* \"#utility.yul\":3372:3392   */\n      tag_98\n      jump\t// in\n    tag_99:\n        /* \"#utility.yul\":3367:3392   */\n      swap3\n      pop\n        /* \"#utility.yul\":3526:3527   */\n      dup3\n        /* \"#utility.yul\":3458:3524   */\n      0xffffffffffffffffffffffffffffffffffffffffffffffffffffffffffffffff\n        /* \"#utility.yul\":3454:3528   */\n      sub\n        /* \"#utility.yul\":3451:3452   */\n      dup3\n        /* \"#utility.yul\":3448:3529   */\n      gt\n        /* \"#utility.yul\":3445:3552   */\n      iszero\n      tag_100\n      jumpi\n        /* \"#utility.yul\":3532:3550   */\n      tag_101\n      tag_102\n      jump\t// in\n    tag_101:\n        /* \"#utility.yul\":3445:3552   */\n    tag_100:\n        /* \"#utility.yul\":3576:3577   */\n      dup3\n        /* \"#utility.yul\":3573:3574   */\n      dup3\n        /* \"#utility.yul\":3569:3578   */\n      add\n        /* \"#utility.yul\":3562:3578   */\n      swap1\n      pop\n        /* \"#utility.yul\":3279:3584   */\n      swap3\n      swap2\n      pop\n      pop\n      jump\t// out\n        /* \"#utility.yul\":3590:3667   */\n    tag_98:\n        /* \"#utility.yul\":3627:3634   */\n      0x00\n        /* \"#utility.yul\":3656:3661   */\n      dup2\n        /* \"#utility.yul\":3645:3661   */\n      swap1\n      pop\n        /* \"#utility.yul\":3590:3667   */\n      swap2\n      swap1\n      pop\n      jump\t// out\n        /* \"#utility.yul\":3673:3827   */\n    tag_48:\n        /* \"#utility.yul\":3757:3763   */\n      dup3\n        /* \"#utility.yul\":3752:3755   */\n      dup2\n        /* \"#utility.yul\":3747:3750   */\n      dup4\n        /* \"#utility.yul\":3734:3764   */\n      calldatacopy\n        /* \"#utility.yul\":3819:3820   */\n      0x00\n        /* \"#utility.yul\":3810:3816   */\n      dup4\n        /* \"#utility.yul\":3805:3808   */\n      dup4\n        /* \"#utility.yul\":3801:3817   */\n      add\n        /* \"#utility.yul\":3794:3821   */\n      mstore\n        /* \"#utility.yul\":3673:3827   */\n      pop\n      pop\n      pop\n      jump\t// out\n        /* \"#utility.yul\":3833:4140   */\n    tag_78:\n        /* \"#utility.yul\":3901:3902   */\n      0x00\n        /* \"#utility.yul\":3911:4024   */\n    tag_106:\n        /* \"#utility.yul\":3925:3931   */\n      dup4\n        /* \"#utility.yul\":3922:3923   */\n      dup2\n        /* \"#utility.yul\":3919:3932   */\n      lt\n        /* \"#utility.yul\":3911:4024   */\n      iszero\n      tag_108\n      jumpi\n        /* \"#utility.yul\":4010:4011   */\n      dup1\n        /* \"#utility.yul\":4005:4008   */\n      dup3\n        /* \"#utility.yul\":4001:4012   */\n      add\n        /* \"#utility.yul\":3995:4013   */\n      mload\n        /* \"#utility.yul\":3991:3992   */\n      dup2\n        /* \"#utility.yul\":3986:3989   */\n      dup5\n        /* \"#utility.yul\":3982:3993   */\n      add\n        /* \"#utility.yul\":3975:4014   */\n      mstore\n        /* \"#utility.yul\":3947:3949   */\n      0x20\n        /* \"#utility.yul\":3944:3945   */\n      dup2\n        /* \"#utility.yul\":3940:3950   */\n      add\n        /* \"#utility.yul\":3935:3950   */\n      swap1\n      pop\n        /* \"#utility.yul\":3911:4024   */\n      jump(tag_106)\n    tag_108:\n        /* \"#utility.yul\":4042:4048   */\n      dup4\n        /* \"#utility.yul\":4039:4040   */\n      dup2\n        /* \"#utility.yul\":4036:4049   */\n      gt\n        /* \"#utility.yul\":4033:4134   */\n      iszero\n      tag_109\n      jumpi\n        /* \"#utility.yul\":4122:4123   */\n      0x00\n        /* \"#utility.yul\":4113:4119   */\n      dup5\n        /* \"#utility.yul\":4108:4111   */\n      dup5\n        /* \"#utility.yul\":4104:4120   */\n      add\n        /* \"#utility.yul\":4097:4124   */\n      mstore\n        /* \"#utility.yul\":4033:4134   */\n    tag_109:\n        /* \"#utility.yul\":3882:4140   */\n      pop\n        /* \"#utility.yul\":3833:4140   */\n      pop\n      pop\n      pop\n      jump\t// out\n        /* \"#utility.yul\":4146:4466   */\n    tag_22:\n        /* \"#utility.yul\":4190:4196   */\n      0x00\n        /* \"#utility.yul\":4227:4228   */\n      0x02\n        /* \"#utility.yul\":4221:4225   */\n      dup3\n        /* \"#utility.yul\":4217:4229   */\n      div\n        /* \"#utility.yul\":4207:4229   */\n      swap1\n      pop\n        /* \"#utility.yul\":4274:4275   */\n      0x01\n        /* \"#utility.yul\":4268:4272   */\n      dup3\n        /* \"#utility.yul\":4264:4276   */\n      and\n        /* \"#utility.yul\":4295:4313   */\n      dup1\n        /* \"#utility.yul\":4285:4366   */\n      tag_111\n      jumpi\n        /* \"#utility.yul\":4351:4355   */\n      0x7f\n        /* \"#utility.yul\":4343:4349   */\n      dup3\n        /* \"#utility.yul\":4339:4356   */\n      and\n        /* \"#utility.yul\":4329:4356   */\n      swap2\n      pop\n        /* \"#utility.yul\":4285:4366   */\n    tag_111:\n        /* \"#utility.yul\":4413:4415   */\n      0x20\n        /* \"#utility.yul\":4405:4411   */\n      dup3\n        /* \"#utility.yul\":4402:4416   */\n      lt\n        /* \"#utility.yul\":4382:4400   */\n      dup2\n        /* \"#utility.yul\":4379:4417   */\n      eq\n        /* \"#utility.yul\":4376:4460   */\n      iszero\n      tag_112\n      jumpi\n        /* \"#utility.yul\":4432:4450   */\n      tag_113\n      tag_114\n      jump\t// in\n    tag_113:\n        /* \"#utility.yul\":4376:4460   */\n    tag_112:\n        /* \"#utility.yul\":4197:4466   */\n      pop\n        /* \"#utility.yul\":4146:4466   */\n      swap2\n      swap1\n      pop\n      jump\t// out\n        /* \"#utility.yul\":4472:4753   */\n    tag_87:\n        /* \"#utility.yul\":4555:4582   */\n      tag_116\n        /* \"#utility.yul\":4577:4581   */\n      dup3\n        /* \"#utility.yul\":4555:4582   */\n      tag_80\n      jump\t// in\n    tag_116:\n        /* \"#utility.yul\":4547:4553   */\n      dup2\n        /* \"#utility.yul\":4543:4583   */\n      add\n        /* \"#utility.yul\":4685:4691   */\n      dup2\n        /* \"#utility.yul\":4673:4683   */\n      dup2\n        /* \"#utility.yul\":4670:4692   */\n      lt\n        /* \"#utility.yul\":4649:4667   */\n      0xffffffffffffffff\n        /* \"#utility.yul\":4637:4647   */\n      dup3\n        /* \"#utility.yul\":4634:4668   */\n      gt\n        /* \"#utility.yul\":4631:4693   */\n      or\n        /* \"#utility.yul\":4628:4716   */\n      iszero\n      tag_117\n      jumpi\n        /* \"#utility.yul\":4696:4714   */\n      tag_118\n      tag_92\n      jump\t// in\n    tag_118:\n        /* \"#utility.yul\":4628:4716   */\n    tag_117:\n        /* \"#utility.yul\":4736:4746   */\n      dup1\n        /* \"#utility.yul\":4732:4734   */\n      0x40\n        /* \"#utility.yul\":4725:4747   */\n      mstore\n        /* \"#utility.yul\":4515:4753   */\n      pop\n        /* \"#utility.yul\":4472:4753   */\n      pop\n      pop\n      jump\t// out\n        /* \"#utility.yul\":4759:4939   */\n    tag_102:\n        /* \"#utility.yul\":4807:4884   */\n      0x4e487b7100000000000000000000000000000000000000000000000000000000\n        /* \"#utility.yul\":4804:4805   */\n      0x00\n        /* \"#utility.yul\":4797:4885   */\n      mstore\n        /* \"#utility.yul\":4904:4908   */\n      0x11\n        /* \"#utility.yul\":4901:4902   */\n      0x04\n        /* \"#utility.yul\":4894:4909   */\n      mstore\n        /* \"#utility.yul\":4928:4932   */\n      0x24\n        /* \"#utility.yul\":4925:4926   */\n      0x00\n        /* \"#utility.yul\":4918:4933   */\n      revert\n        /* \"#utility.yul\":4945:5125   */\n    tag_114:\n        /* \"#utility.yul\":4993:5070   */\n      0x4e487b7100000000000000000000000000000000000000000000000000000000\n        /* \"#utility.yul\":4990:4991   */\n      0x00\n        /* \"#utility.yul\":4983:5071   */\n      mstore\n        /* \"#utility.yul\":5090:5094   */\n      0x22\n        /* \"#utility.yul\":5087:5088   */\n      0x04\n        /* \"#utility.yul\":5080:5095   */\n      mstore\n        /* \"#utility.yul\":5114:5118   */\n      0x24\n        /* \"#utility.yul\":5111:5112   */\n      0x00\n        /* \"#utility.yul\":5104:5119   */\n      revert\n        /* \"#utility.yul\":5131:5311   */\n    tag_92:\n        /* \"#utility.yul\":5179:5256   */\n      0x4e487b7100000000000000000000000000000000000000000000000000000000\n        /* \"#utility.yul\":5176:5177   */\n      0x00\n        /* \"#utility.yul\":5169:5257   */\n      mstore\n        /* \"#utility.yul\":5276:5280   */\n      0x41\n        /* \"#utility.yul\":5273:5274   */\n      0x04\n        /* \"#utility.yul\":5266:5281   */\n      mstore\n        /* \"#utility.yul\":5300:5304   */\n      0x24\n        /* \"#utility.yul\":5297:5298   */\n      0x00\n        /* \"#utility.yul\":5290:5305   */\n      revert\n        /* \"#utility.yul\":5317:5434   */\n    tag_53:\n        /* \"#utility.yul\":5426:5427   */\n      0x00\n        /* \"#utility.yul\":5423:5424   */\n      dup1\n        /* \"#utility.yul\":5416:5428   */\n      revert\n        /* \"#utility.yul\":5440:5557   */\n    tag_46:\n        /* \"#utility.yul\":5549:5550   */\n      0x00\n        /* \"#utility.yul\":5546:5547   */\n      dup1\n        /* \"#utility.yul\":5539:5551   */\n      revert\n        /* \"#utility.yul\":5563:5680   */\n    tag_65:\n        /* \"#utility.yul\":5672:5673   */\n      0x00\n        /* \"#utility.yul\":5669:5670   */\n      dup1\n        /* \"#utility.yul\":5662:5674   */\n      revert\n        /* \"#utility.yul\":5686:5803   */\n    tag_62:\n        /* \"#utility.yul\":5795:5796   */\n      0x00\n        /* \"#utility.yul\":5792:5793   */\n      dup1\n        /* \"#utility.yul\":5785:5797   */\n      revert\n        /* \"#utility.yul\":5809:5911   */\n    tag_80:\n        /* \"#utility.yul\":5850:5856   */\n      0x00\n        /* \"#utility.yul\":5901:5903   */\n      0x1f\n        /* \"#utility.yul\":5897:5904   */\n      not\n        /* \"#utility.yul\":5892:5894   */\n      0x1f\n        /* \"#utility.yul\":5885:5890   */\n      dup4\n        /* \"#utility.yul\":5881:5895   */\n      add\n        /* \"#utility.yul\":5877:5905   */\n      and\n        /* \"#utility.yul\":5867:5905   */\n      swap1\n      pop\n        /* \"#utility.yul\":5809:5911   */\n      swap2\n      swap1\n      pop\n      jump\t// out\n        /* \"#utility.yul\":5917:6039   */\n    tag_58:\n        /* \"#utility.yul\":5990:6014   */\n      tag_128\n        /* \"#utility.yul\":6008:6013   */\n      dup2\n        /* \"#utility.yul\":5990:6014   */\n      tag_98\n      jump\t// in\n    tag_128:\n        /* \"#utility.yul\":5983:5988   */\n      dup2\n        /* \"#utility.yul\":5980:6015   */\n      eq\n        /* \"#utility.yul\":5970:6033   */\n      tag_129\n      jumpi\n        /* \"#utility.yul\":6029:6030   */\n      0x00\n        /* \"#utility.yul\":6026:6027   */\n      dup1\n        /* \"#utility.yul\":6019:6031   */\n      revert\n        /* \"#utility.yul\":5970:6033   */\n    tag_129:\n        /* \"#utility.yul\":5917:6039   */\n      pop\n      jump\t// out\n\n    auxdata: 0xa26469706673582212206fd710bfc16cf2a9ee5f344b5b6964d41ad61257337446f5d536f7acdb4a273664736f6c63430008070033\n}\n",
				"bytecode": {
					"linkReferences": {},
					"object": "6080604052600060015534801561001557600080fd5b506105da806100256000396000f3fe608060405234801561001057600080fd5b50600436106100365760003560e01c8063340a8f6e1461003b578063a324ad2414610057575b600080fd5b61005560048036038101906100509190610293565b610087565b005b610071600480360381019061006c91906102dc565b6100c7565b60405161007e9190610342565b60405180910390f35b6001805461009591906103d6565b60018190555080600080600154815260200190815260200160002090805190602001906100c392919061016b565b5050565b606060008083815260200190815260200160002080546100e690610478565b80601f016020809104026020016040519081016040528092919081815260200182805461011290610478565b801561015f5780601f106101345761010080835404028352916020019161015f565b820191906000526020600020905b81548152906001019060200180831161014257829003601f168201915b50505050509050919050565b82805461017790610478565b90600052602060002090601f01602090048101928261019957600085556101e0565b82601f106101b257805160ff19168380011785556101e0565b828001600101855582156101e0579182015b828111156101df5782518255916020019190600101906101c4565b5b5090506101ed91906101f1565b5090565b5b8082111561020a5760008160009055506001016101f2565b5090565b600061022161021c84610389565b610364565b90508281526020810184848401111561023d5761023c61056d565b5b610248848285610436565b509392505050565b600082601f83011261026557610264610568565b5b813561027584826020860161020e565b91505092915050565b60008135905061028d8161058d565b92915050565b6000602082840312156102a9576102a8610577565b5b600082013567ffffffffffffffff8111156102c7576102c6610572565b5b6102d384828501610250565b91505092915050565b6000602082840312156102f2576102f1610577565b5b60006103008482850161027e565b91505092915050565b6000610314826103ba565b61031e81856103c5565b935061032e818560208601610445565b6103378161057c565b840191505092915050565b6000602082019050818103600083015261035c8184610309565b905092915050565b600061036e61037f565b905061037a82826104aa565b919050565b6000604051905090565b600067ffffffffffffffff8211156103a4576103a3610539565b5b6103ad8261057c565b9050602081019050919050565b600081519050919050565b600082825260208201905092915050565b60006103e18261042c565b91506103ec8361042c565b9250827fffffffffffffffffffffffffffffffffffffffffffffffffffffffffffffffff03821115610421576104206104db565b5b828201905092915050565b6000819050919050565b82818337600083830152505050565b60005b83811015610463578082015181840152602081019050610448565b83811115610472576000848401525b50505050565b6000600282049050600182168061049057607f821691505b602082108114156104a4576104a361050a565b5b50919050565b6104b38261057c565b810181811067ffffffffffffffff821117156104d2576104d1610539565b5b80604052505050565b7f4e487b7100000000000000000000000000000000000000000000000000000000600052601160045260246000fd5b7f4e487b7100000000000000000000000000000000000000000000000000000000600052602260045260246000fd5b7f4e487b7100000000000000000000000000000000000000000000000000000000600052604160045260246000fd5b600080fd5b600080fd5b600080fd5b600080fd5b6000601f19601f8301169050919050565b6105968161042c565b81146105a157600080fd5b5056fea26469706673582212206fd710bfc16cf2a9ee5f344b5b6964d41ad61257337446f5d536f7acdb4a273664736f6c63430008070033",
					"opcodes": "PUSH1 0x80 PUSH1 0x40 MSTORE PUSH1 0x0 PUSH1 0x1 SSTORE CALLVALUE DUP1 ISZERO PUSH2 0x15 JUMPI PUSH1 0x0 DUP1 REVERT JUMPDEST POP PUSH2 0x5DA DUP1 PUSH2 0x25 PUSH1 0x0 CODECOPY PUSH1 0x0 RETURN INVALID PUSH1 0x80 PUSH1 0x40 MSTORE CALLVALUE DUP1 ISZERO PUSH2 0x10 JUMPI PUSH1 0x0 DUP1 REVERT JUMPDEST POP PUSH1 0x4 CALLDATASIZE LT PUSH2 0x36 JUMPI PUSH1 0x0 CALLDATALOAD PUSH1 0xE0 SHR DUP1 PUSH4 0x340A8F6E EQ PUSH2 0x3B JUMPI DUP1 PUSH4 0xA324AD24 EQ PUSH2 0x57 JUMPI JUMPDEST PUSH1 0x0 DUP1 REVERT JUMPDEST PUSH2 0x55 PUSH1 0x4 DUP1 CALLDATASIZE SUB DUP2 ADD SWAP1 PUSH2 0x50 SWAP2 SWAP1 PUSH2 0x293 JUMP JUMPDEST PUSH2 0x87 JUMP JUMPDEST STOP JUMPDEST PUSH2 0x71 PUSH1 0x4 DUP1 CALLDATASIZE SUB DUP2 ADD SWAP1 PUSH2 0x6C SWAP2 SWAP1 PUSH2 0x2DC JUMP JUMPDEST PUSH2 0xC7 JUMP JUMPDEST PUSH1 0x40 MLOAD PUSH2 0x7E SWAP2 SWAP1 PUSH2 0x342 JUMP JUMPDEST PUSH1 0x40 MLOAD DUP1 SWAP2 SUB SWAP1 RETURN JUMPDEST PUSH1 0x1 DUP1 SLOAD PUSH2 0x95 SWAP2 SWAP1 PUSH2 0x3D6 JUMP JUMPDEST PUSH1 0x1 DUP2 SWAP1 SSTORE POP DUP1 PUSH1 0x0 DUP1 PUSH1 0x1 SLOAD DUP2 MSTORE PUSH1 0x20 ADD SWAP1 DUP2 MSTORE PUSH1 0x20 ADD PUSH1 0x0 KECCAK256 SWAP1 DUP1 MLOAD SWAP1 PUSH1 0x20 ADD SWAP1 PUSH2 0xC3 SWAP3 SWAP2 SWAP1 PUSH2 0x16B JUMP JUMPDEST POP POP JUMP JUMPDEST PUSH1 0x60 PUSH1 0x0 DUP1 DUP4 DUP2 MSTORE PUSH1 0x20 ADD SWAP1 DUP2 MSTORE PUSH1 0x20 ADD PUSH1 0x0 KECCAK256 DUP1 SLOAD PUSH2 0xE6 SWAP1 PUSH2 0x478 JUMP JUMPDEST DUP1 PUSH1 0x1F ADD PUSH1 0x20 DUP1 SWAP2 DIV MUL PUSH1 0x20 ADD PUSH1 0x40 MLOAD SWAP1 DUP2 ADD PUSH1 0x40 MSTORE DUP1 SWAP3 SWAP2 SWAP1 DUP2 DUP2 MSTORE PUSH1 0x20 ADD DUP3 DUP1 SLOAD PUSH2 0x112 SWAP1 PUSH2 0x478 JUMP JUMPDEST DUP1 ISZERO PUSH2 0x15F JUMPI DUP1 PUSH1 0x1F LT PUSH2 0x134 JUMPI PUSH2 0x100 DUP1 DUP4 SLOAD DIV MUL DUP4 MSTORE SWAP2 PUSH1 0x20 ADD SWAP2 PUSH2 0x15F JUMP JUMPDEST DUP3 ADD SWAP2 SWAP1 PUSH1 0x0 MSTORE PUSH1 0x20 PUSH1 0x0 KECCAK256 SWAP1 JUMPDEST DUP2 SLOAD DUP2 MSTORE SWAP1 PUSH1 0x1 ADD SWAP1 PUSH1 0x20 ADD DUP1 DUP4 GT PUSH2 0x142 JUMPI DUP3 SWAP1 SUB PUSH1 0x1F AND DUP3 ADD SWAP2 JUMPDEST POP POP POP POP POP SWAP1 POP SWAP2 SWAP1 POP JUMP JUMPDEST DUP3 DUP1 SLOAD PUSH2 0x177 SWAP1 PUSH2 0x478 JUMP JUMPDEST SWAP1 PUSH1 0x0 MSTORE PUSH1 0x20 PUSH1 0x0 KECCAK256 SWAP1 PUSH1 0x1F ADD PUSH1 0x20 SWAP1 DIV DUP2 ADD SWAP3 DUP3 PUSH2 0x199 JUMPI PUSH1 0x0 DUP6 SSTORE PUSH2 0x1E0 JUMP JUMPDEST DUP3 PUSH1 0x1F LT PUSH2 0x1B2 JUMPI DUP1 MLOAD PUSH1 0xFF NOT AND DUP4 DUP1 ADD OR DUP6 SSTORE PUSH2 0x1E0 JUMP JUMPDEST DUP3 DUP1 ADD PUSH1 0x1 ADD DUP6 SSTORE DUP3 ISZERO PUSH2 0x1E0 JUMPI SWAP2 DUP3 ADD JUMPDEST DUP3 DUP2 GT ISZERO PUSH2 0x1DF JUMPI DUP3 MLOAD DUP3 SSTORE SWAP2 PUSH1 0x20 ADD SWAP2 SWAP1 PUSH1 0x1 ADD SWAP1 PUSH2 0x1C4 JUMP JUMPDEST JUMPDEST POP SWAP1 POP PUSH2 0x1ED SWAP2 SWAP1 PUSH2 0x1F1 JUMP JUMPDEST POP SWAP1 JUMP JUMPDEST JUMPDEST DUP1 DUP3 GT ISZERO PUSH2 0x20A JUMPI PUSH1 0x0 DUP2 PUSH1 0x0 SWAP1 SSTORE POP PUSH1 0x1 ADD PUSH2 0x1F2 JUMP JUMPDEST POP SWAP1 JUMP JUMPDEST PUSH1 0x0 PUSH2 0x221 PUSH2 0x21C DUP5 PUSH2 0x389 JUMP JUMPDEST PUSH2 0x364 JUMP JUMPDEST SWAP1 POP DUP3 DUP2 MSTORE PUSH1 0x20 DUP2 ADD DUP5 DUP5 DUP5 ADD GT ISZERO PUSH2 0x23D JUMPI PUSH2 0x23C PUSH2 0x56D JUMP JUMPDEST JUMPDEST PUSH2 0x248 DUP5 DUP3 DUP6 PUSH2 0x436 JUMP JUMPDEST POP SWAP4 SWAP3 POP POP POP JUMP JUMPDEST PUSH1 0x0 DUP3 PUSH1 0x1F DUP4 ADD SLT PUSH2 0x265 JUMPI PUSH2 0x264 PUSH2 0x568 JUMP JUMPDEST JUMPDEST DUP2 CALLDATALOAD PUSH2 0x275 DUP5 DUP3 PUSH1 0x20 DUP7 ADD PUSH2 0x20E JUMP JUMPDEST SWAP2 POP POP SWAP3 SWAP2 POP POP JUMP JUMPDEST PUSH1 0x0 DUP2 CALLDATALOAD SWAP1 POP PUSH2 0x28D DUP2 PUSH2 0x58D JUMP JUMPDEST SWAP3 SWAP2 POP POP JUMP JUMPDEST PUSH1 0x0 PUSH1 0x20 DUP3 DUP5 SUB SLT ISZERO PUSH2 0x2A9 JUMPI PUSH2 0x2A8 PUSH2 0x577 JUMP JUMPDEST JUMPDEST PUSH1 0x0 DUP3 ADD CALLDATALOAD PUSH8 0xFFFFFFFFFFFFFFFF DUP2 GT ISZERO PUSH2 0x2C7 JUMPI PUSH2 0x2C6 PUSH2 0x572 JUMP JUMPDEST JUMPDEST PUSH2 0x2D3 DUP5 DUP3 DUP6 ADD PUSH2 0x250 JUMP JUMPDEST SWAP2 POP POP SWAP3 SWAP2 POP POP JUMP JUMPDEST PUSH1 0x0 PUSH1 0x20 DUP3 DUP5 SUB SLT ISZERO PUSH2 0x2F2 JUMPI PUSH2 0x2F1 PUSH2 0x577 JUMP JUMPDEST JUMPDEST PUSH1 0x0 PUSH2 0x300 DUP5 DUP3 DUP6 ADD PUSH2 0x27E JUMP JUMPDEST SWAP2 POP POP SWAP3 SWAP2 POP POP JUMP JUMPDEST PUSH1 0x0 PUSH2 0x314 DUP3 PUSH2 0x3BA JUMP JUMPDEST PUSH2 0x31E DUP2 DUP6 PUSH2 0x3C5 JUMP JUMPDEST SWAP4 POP PUSH2 0x32E DUP2 DUP6 PUSH1 0x20 DUP7 ADD PUSH2 0x445 JUMP JUMPDEST PUSH2 0x337 DUP2 PUSH2 0x57C JUMP JUMPDEST DUP5 ADD SWAP2 POP POP SWAP3 SWAP2 POP POP JUMP JUMPDEST PUSH1 0x0 PUSH1 0x20 DUP3 ADD SWAP1 POP DUP2 DUP2 SUB PUSH1 0x0 DUP4 ADD MSTORE PUSH2 0x35C DUP2 DUP5 PUSH2 0x309 JUMP JUMPDEST SWAP1 POP SWAP3 SWAP2 POP POP JUMP JUMPDEST PUSH1 0x0 PUSH2 0x36E PUSH2 0x37F JUMP JUMPDEST SWAP1 POP PUSH2 0x37A DUP3 DUP3 PUSH2 0x4AA JUMP JUMPDEST SWAP2 SWAP1 POP JUMP JUMPDEST PUSH1 0x0 PUSH1 0x40 MLOAD SWAP1 POP SWAP1 JUMP JUMPDEST PUSH1 0x0 PUSH8 0xFFFFFFFFFFFFFFFF DUP3 GT ISZERO PUSH2 0x3A4 JUMPI PUSH2 0x3A3 PUSH2 0x539 JUMP JUMPDEST JUMPDEST PUSH2 0x3AD DUP3 PUSH2 0x57C JUMP JUMPDEST SWAP1 POP PUSH1 0x20 DUP2 ADD SWAP1 POP SWAP2 SWAP1 POP JUMP JUMPDEST PUSH1 0x0 DUP2 MLOAD SWAP1 POP SWAP2 SWAP1 POP JUMP JUMPDEST PUSH1 0x0 DUP3 DUP3 MSTORE PUSH1 0x20 DUP3 ADD SWAP1 POP SWAP3 SWAP2 POP POP JUMP JUMPDEST PUSH1 0x0 PUSH2 0x3E1 DUP3 PUSH2 0x42C JUMP JUMPDEST SWAP2 POP PUSH2 0x3EC DUP4 PUSH2 0x42C JUMP JUMPDEST SWAP3 POP DUP3 PUSH32 0xFFFFFFFFFFFFFFFFFFFFFFFFFFFFFFFFFFFFFFFFFFFFFFFFFFFFFFFFFFFFFFFF SUB DUP3 GT ISZERO PUSH2 0x421 JUMPI PUSH2 0x420 PUSH2 0x4DB JUMP JUMPDEST JUMPDEST DUP3 DUP3 ADD SWAP1 POP SWAP3 SWAP2 POP POP JUMP JUMPDEST PUSH1 0x0 DUP2 SWAP1 POP SWAP2 SWAP1 POP JUMP JUMPDEST DUP3 DUP2 DUP4 CALLDATACOPY PUSH1 0x0 DUP4 DUP4 ADD MSTORE POP POP POP JUMP JUMPDEST PUSH1 0x0 JUMPDEST DUP4 DUP2 LT ISZERO PUSH2 0x463 JUMPI DUP1 DUP3 ADD MLOAD DUP2 DUP5 ADD MSTORE PUSH1 0x20 DUP2 ADD SWAP1 POP PUSH2 0x448 JUMP JUMPDEST DUP4 DUP2 GT ISZERO PUSH2 0x472 JUMPI PUSH1 0x0 DUP5 DUP5 ADD MSTORE JUMPDEST POP POP POP POP JUMP JUMPDEST PUSH1 0x0 PUSH1 0x2 DUP3 DIV SWAP1 POP PUSH1 0x1 DUP3 AND DUP1 PUSH2 0x490 JUMPI PUSH1 0x7F DUP3 AND SWAP2 POP JUMPDEST PUSH1 0x20 DUP3 LT DUP2 EQ ISZERO PUSH2 0x4A4 JUMPI PUSH2 0x4A3 PUSH2 0x50A JUMP JUMPDEST JUMPDEST POP SWAP2 SWAP1 POP JUMP JUMPDEST PUSH2 0x4B3 DUP3 PUSH2 0x57C JUMP JUMPDEST DUP2 ADD DUP2 DUP2 LT PUSH8 0xFFFFFFFFFFFFFFFF DUP3 GT OR ISZERO PUSH2 0x4D2 JUMPI PUSH2 0x4D1 PUSH2 0x539 JUMP JUMPDEST JUMPDEST DUP1 PUSH1 0x40 MSTORE POP POP POP JUMP JUMPDEST PUSH32 0x4E487B7100000000000000000000000000000000000000000000000000000000 PUSH1 0x0 MSTORE PUSH1 0x11 PUSH1 0x4 MSTORE PUSH1 0x24 PUSH1 0x0 REVERT JUMPDEST PUSH32 0x4E487B7100000000000000000000000000000000000000000000000000000000 PUSH1 0x0 MSTORE PUSH1 0x22 PUSH1 0x4 MSTORE PUSH1 0x24 PUSH1 0x0 REVERT JUMPDEST PUSH32 0x4E487B7100000000000000000000000000000000000000000000000000000000 PUSH1 0x0 MSTORE PUSH1 0x41 PUSH1 0x4 MSTORE PUSH1 0x24 PUSH1 0x0 REVERT JUMPDEST PUSH1 0x0 DUP1 REVERT JUMPDEST PUSH1 0x0 DUP1 REVERT JUMPDEST PUSH1 0x0 DUP1 REVERT JUMPDEST PUSH1 0x0 DUP1 REVERT JUMPDEST PUSH1 0x0 PUSH1 0x1F NOT PUSH1 0x1F DUP4 ADD AND SWAP1 POP SWAP2 SWAP1 POP JUMP JUMPDEST PUSH2 0x596 DUP2 PUSH2 0x42C JUMP JUMPDEST DUP2 EQ PUSH2 0x5A1 JUMPI PUSH1 0x0 DUP1 REVERT JUMPDEST POP JUMP INVALID LOG2 PUSH5 0x6970667358 0x22 SLT KECCAK256 PUSH16 0xD710BFC16CF2A9EE5F344B5B6964D41A 0xD6 SLT JUMPI CALLER PUSH21 0x46F5D536F7ACDB4A273664736F6C63430008070033 "
				},
				"gasEstimates": {
					"creation": {
						"codeDepositCost": "299600",
						"executionCost": "5343",
						"totalCost": "304943"
					},
					"external": {
						"addMonth(string)": "infinite",
						"getMonth(uint256)": "infinite"
					}
				},
				"methodIdentifiers": {
					"addMonth(string)": "340a8f6e",
					"getMonth(uint256)": "a324ad24"
				}
			},
			"storageLayout": {
				"storage": [
					{
						"astId": 5,
						"contract": "contracts/2_monthStore.sol:MonthStore",
						"label": "months",
						"offset": 0,
						"slot": "0",
						"type": "t_mapping(t_uint256,t_string_storage)"
					},
					{
						"astId": 8,
						"contract": "contracts/2_monthStore.sol:MonthStore",
						"label": "count",
						"offset": 0,
						"slot": "1",
						"type": "t_uint256"
					}
				],
				"types": {
					"t_mapping(t_uint256,t_string_storage)": {
						"encoding": "mapping",
						"key": "t_uint256",
						"label": "mapping(uint256 => string)",
						"numberOfBytes": "32",
						"value": "t_string_storage"
					},
					"t_string_storage": {
						"encoding": "bytes",
						"label": "string",
						"numberOfBytes": "32"
					},
					"t_uint256": {
						"encoding": "inplace",
						"label": "uint256",
						"numberOfBytes": "32"
					}
				}
			},
			"userdoc": {
				"kind": "user",
				"methods": {},
				"version": 1
			}
		}
	}
}