{
	"contracts/2_monthStore.sol": {
		"MonthStore": {
			"abi": [
				{
					"inputs": [
						{
							"internalType": "string",
							"name": "_monthName",
							"type": "string"
						}
					],
					"name": "addMonth",
					"outputs": [],
					"stateMutability": "nonpayable",
					"type": "function"
				},
				{
					"inputs": [
						{
							"internalType": "string",
							"name": "_num",
							"type": "string"
						}
					],
					"name": "getMonth",
					"outputs": [
						{
							"internalType": "string",
							"name": "",
							"type": "string"
						}
					],
					"stateMutability": "nonpayable",
					"type": "function"
				}
			],
			"devdoc": {
				"kind": "dev",
				"methods": {},
				"version": 1
			},
			"evm": {
				"assembly": "    /* \"contracts/2_monthStore.sol\":62:367  contract MonthStore {\r... */\n  mstore(0x40, 0x80)\n    /* \"contracts/2_monthStore.sol\":139:140  0 */\n  0x00\n    /* \"contracts/2_monthStore.sol\":126:140  uint count = 0 */\n  0x01\n  sstore\n    /* \"contracts/2_monthStore.sol\":62:367  contract MonthStore {\r... */\n  callvalue\n  dup1\n  iszero\n  tag_1\n  jumpi\n  0x00\n  dup1\n  revert\ntag_1:\n  pop\n  dataSize(sub_0)\n  dup1\n  dataOffset(sub_0)\n  0x00\n  codecopy\n  0x00\n  return\nstop\n\nsub_0: assembly {\n        /* \"contracts/2_monthStore.sol\":62:367  contract MonthStore {\r... */\n      mstore(0x40, 0x80)\n      callvalue\n      dup1\n      iszero\n      tag_1\n      jumpi\n      0x00\n      dup1\n      revert\n    tag_1:\n      pop\n      jumpi(tag_2, lt(calldatasize, 0x04))\n      shr(0xe0, calldataload(0x00))\n      dup1\n      0x340a8f6e\n      eq\n      tag_3\n      jumpi\n      dup1\n      0xa85009be\n      eq\n      tag_4\n      jumpi\n    tag_2:\n      0x00\n      dup1\n      revert\n        /* \"contracts/2_monthStore.sol\":147:271  function addMonth(string memory _monthName) public {\r... */\n    tag_3:\n      tag_5\n      0x04\n      dup1\n      calldatasize\n      sub\n      dup2\n      add\n      swap1\n      tag_6\n      swap2\n      swap1\n      tag_7\n      jump\t// in\n    tag_6:\n      tag_8\n      jump\t// in\n    tag_5:\n      stop\n        /* \"contracts/2_monthStore.sol\":279:364  function getMonth(string memory _num) public returns(string memory){\r... */\n    tag_4:\n      tag_9\n      0x04\n      dup1\n      calldatasize\n      sub\n      dup2\n      add\n      swap1\n      tag_10\n      swap2\n      swap1\n      tag_7\n      jump\t// in\n    tag_10:\n      tag_11\n      jump\t// in\n    tag_9:\n      mload(0x40)\n      tag_12\n      swap2\n      swap1\n      tag_13\n      jump\t// in\n    tag_12:\n      mload(0x40)\n      dup1\n      swap2\n      sub\n      swap1\n      return\n        /* \"contracts/2_monthStore.sol\":147:271  function addMonth(string memory _monthName) public {\r... */\n    tag_8:\n        /* \"contracts/2_monthStore.sol\":225:226  1 */\n      0x01\n        /* \"contracts/2_monthStore.sol\":217:222  count */\n      dup1\n      sload\n        /* \"contracts/2_monthStore.sol\":217:226  count + 1 */\n      tag_15\n      swap2\n      swap1\n      tag_16\n      jump\t// in\n    tag_15:\n        /* \"contracts/2_monthStore.sol\":209:214  count */\n      0x01\n        /* \"contracts/2_monthStore.sol\":209:226  count = count + 1 */\n      dup2\n      swap1\n      sstore\n      pop\n        /* \"contracts/2_monthStore.sol\":253:263  _monthName */\n      dup1\n        /* \"contracts/2_monthStore.sol\":237:243  months */\n      0x00\n        /* \"contracts/2_monthStore.sol\":237:250  months[count] */\n      dup1\n        /* \"contracts/2_monthStore.sol\":244:249  count */\n      sload(0x01)\n        /* \"contracts/2_monthStore.sol\":237:250  months[count] */\n      dup2\n      mstore\n      0x20\n      add\n      swap1\n      dup2\n      mstore\n      0x20\n      add\n      0x00\n      keccak256\n        /* \"contracts/2_monthStore.sol\":237:263  months[count] = _monthName */\n      swap1\n      dup1\n      mload\n      swap1\n      0x20\n      add\n      swap1\n      tag_17\n      swap3\n      swap2\n      swap1\n      tag_18\n      jump\t// in\n    tag_17:\n      pop\n        /* \"contracts/2_monthStore.sol\":147:271  function addMonth(string memory _monthName) public {\r... */\n      pop\n      jump\t// out\n        /* \"contracts/2_monthStore.sol\":279:364  function getMonth(string memory _num) public returns(string memory){\r... */\n    tag_11:\n        /* \"contracts/2_monthStore.sol\":332:345  string memory */\n      0x60\n        /* \"contracts/2_monthStore.sol\":279:364  function getMonth(string memory _num) public returns(string memory){\r... */\n      swap2\n      swap1\n      pop\n      jump\t// out\n    tag_18:\n      dup3\n      dup1\n      sload\n      tag_20\n      swap1\n      tag_21\n      jump\t// in\n    tag_20:\n      swap1\n      0x00\n      mstore\n      keccak256(0x00, 0x20)\n      swap1\n      0x1f\n      add\n      0x20\n      swap1\n      div\n      dup2\n      add\n      swap3\n      dup3\n      tag_23\n      jumpi\n      0x00\n      dup6\n      sstore\n      jump(tag_22)\n    tag_23:\n      dup3\n      0x1f\n      lt\n      tag_24\n      jumpi\n      dup1\n      mload\n      not(0xff)\n      and\n      dup4\n      dup1\n      add\n      or\n      dup6\n      sstore\n      jump(tag_22)\n    tag_24:\n      dup3\n      dup1\n      add\n      0x01\n      add\n      dup6\n      sstore\n      dup3\n      iszero\n      tag_22\n      jumpi\n      swap2\n      dup3\n      add\n    tag_25:\n      dup3\n      dup2\n      gt\n      iszero\n      tag_26\n      jumpi\n      dup3\n      mload\n      dup3\n      sstore\n      swap2\n      0x20\n      add\n      swap2\n      swap1\n      0x01\n      add\n      swap1\n      jump(tag_25)\n    tag_26:\n    tag_22:\n      pop\n      swap1\n      pop\n      tag_27\n      swap2\n      swap1\n      tag_28\n      jump\t// in\n    tag_27:\n      pop\n      swap1\n      jump\t// out\n    tag_28:\n    tag_29:\n      dup1\n      dup3\n      gt\n      iszero\n      tag_30\n      jumpi\n      0x00\n      dup2\n      0x00\n      swap1\n      sstore\n      pop\n      0x01\n      add\n      jump(tag_29)\n    tag_30:\n      pop\n      swap1\n      jump\t// out\n        /* \"#utility.yul\":7:419   */\n    tag_32:\n        /* \"#utility.yul\":85:90   */\n      0x00\n        /* \"#utility.yul\":110:176   */\n      tag_34\n        /* \"#utility.yul\":126:175   */\n      tag_35\n        /* \"#utility.yul\":168:174   */\n      dup5\n        /* \"#utility.yul\":126:175   */\n      tag_36\n      jump\t// in\n    tag_35:\n        /* \"#utility.yul\":110:176   */\n      tag_37\n      jump\t// in\n    tag_34:\n        /* \"#utility.yul\":101:176   */\n      swap1\n      pop\n        /* \"#utility.yul\":199:205   */\n      dup3\n        /* \"#utility.yul\":192:197   */\n      dup2\n        /* \"#utility.yul\":185:206   */\n      mstore\n        /* \"#utility.yul\":237:241   */\n      0x20\n        /* \"#utility.yul\":230:235   */\n      dup2\n        /* \"#utility.yul\":226:242   */\n      add\n        /* \"#utility.yul\":275:278   */\n      dup5\n        /* \"#utility.yul\":266:272   */\n      dup5\n        /* \"#utility.yul\":261:264   */\n      dup5\n        /* \"#utility.yul\":257:273   */\n      add\n        /* \"#utility.yul\":254:279   */\n      gt\n        /* \"#utility.yul\":251:363   */\n      iszero\n      tag_38\n      jumpi\n        /* \"#utility.yul\":282:361   */\n      tag_39\n      tag_40\n      jump\t// in\n    tag_39:\n        /* \"#utility.yul\":251:363   */\n    tag_38:\n        /* \"#utility.yul\":372:413   */\n      tag_41\n        /* \"#utility.yul\":406:412   */\n      dup5\n        /* \"#utility.yul\":401:404   */\n      dup3\n        /* \"#utility.yul\":396:399   */\n      dup6\n        /* \"#utility.yul\":372:413   */\n      tag_42\n      jump\t// in\n    tag_41:\n        /* \"#utility.yul\":91:419   */\n      pop\n        /* \"#utility.yul\":7:419   */\n      swap4\n      swap3\n      pop\n      pop\n      pop\n      jump\t// out\n        /* \"#utility.yul\":439:779   */\n    tag_43:\n        /* \"#utility.yul\":495:500   */\n      0x00\n        /* \"#utility.yul\":544:547   */\n      dup3\n        /* \"#utility.yul\":537:541   */\n      0x1f\n        /* \"#utility.yul\":529:535   */\n      dup4\n        /* \"#utility.yul\":525:542   */\n      add\n        /* \"#utility.yul\":521:548   */\n      slt\n        /* \"#utility.yul\":511:633   */\n      tag_45\n      jumpi\n        /* \"#utility.yul\":552:631   */\n      tag_46\n      tag_47\n      jump\t// in\n    tag_46:\n        /* \"#utility.yul\":511:633   */\n    tag_45:\n        /* \"#utility.yul\":669:675   */\n      dup2\n        /* \"#utility.yul\":656:676   */\n      calldataload\n        /* \"#utility.yul\":694:773   */\n      tag_48\n        /* \"#utility.yul\":769:772   */\n      dup5\n        /* \"#utility.yul\":761:767   */\n      dup3\n        /* \"#utility.yul\":754:758   */\n      0x20\n        /* \"#utility.yul\":746:752   */\n      dup7\n        /* \"#utility.yul\":742:759   */\n      add\n        /* \"#utility.yul\":694:773   */\n      tag_32\n      jump\t// in\n    tag_48:\n        /* \"#utility.yul\":685:773   */\n      swap2\n      pop\n        /* \"#utility.yul\":501:779   */\n      pop\n        /* \"#utility.yul\":439:779   */\n      swap3\n      swap2\n      pop\n      pop\n      jump\t// out\n        /* \"#utility.yul\":785:1294   */\n    tag_7:\n        /* \"#utility.yul\":854:860   */\n      0x00\n        /* \"#utility.yul\":903:905   */\n      0x20\n        /* \"#utility.yul\":891:900   */\n      dup3\n        /* \"#utility.yul\":882:889   */\n      dup5\n        /* \"#utility.yul\":878:901   */\n      sub\n        /* \"#utility.yul\":874:906   */\n      slt\n        /* \"#utility.yul\":871:990   */\n      iszero\n      tag_50\n      jumpi\n        /* \"#utility.yul\":909:988   */\n      tag_51\n      tag_52\n      jump\t// in\n    tag_51:\n        /* \"#utility.yul\":871:990   */\n    tag_50:\n        /* \"#utility.yul\":1057:1058   */\n      0x00\n        /* \"#utility.yul\":1046:1055   */\n      dup3\n        /* \"#utility.yul\":1042:1059   */\n      add\n        /* \"#utility.yul\":1029:1060   */\n      calldataload\n        /* \"#utility.yul\":1087:1105   */\n      0xffffffffffffffff\n        /* \"#utility.yul\":1079:1085   */\n      dup2\n        /* \"#utility.yul\":1076:1106   */\n      gt\n        /* \"#utility.yul\":1073:1190   */\n      iszero\n      tag_53\n      jumpi\n        /* \"#utility.yul\":1109:1188   */\n      tag_54\n      tag_55\n      jump\t// in\n    tag_54:\n        /* \"#utility.yul\":1073:1190   */\n    tag_53:\n        /* \"#utility.yul\":1214:1277   */\n      tag_56\n        /* \"#utility.yul\":1269:1276   */\n      dup5\n        /* \"#utility.yul\":1260:1266   */\n      dup3\n        /* \"#utility.yul\":1249:1258   */\n      dup6\n        /* \"#utility.yul\":1245:1267   */\n      add\n        /* \"#utility.yul\":1214:1277   */\n      tag_43\n      jump\t// in\n    tag_56:\n        /* \"#utility.yul\":1204:1277   */\n      swap2\n      pop\n        /* \"#utility.yul\":1000:1287   */\n      pop\n        /* \"#utility.yul\":785:1294   */\n      swap3\n      swap2\n      pop\n      pop\n      jump\t// out\n        /* \"#utility.yul\":1300:1664   */\n    tag_57:\n        /* \"#utility.yul\":1388:1391   */\n      0x00\n        /* \"#utility.yul\":1416:1455   */\n      tag_59\n        /* \"#utility.yul\":1449:1454   */\n      dup3\n        /* \"#utility.yul\":1416:1455   */\n      tag_60\n      jump\t// in\n    tag_59:\n        /* \"#utility.yul\":1471:1542   */\n      tag_61\n        /* \"#utility.yul\":1535:1541   */\n      dup2\n        /* \"#utility.yul\":1530:1533   */\n      dup6\n        /* \"#utility.yul\":1471:1542   */\n      tag_62\n      jump\t// in\n    tag_61:\n        /* \"#utility.yul\":1464:1542   */\n      swap4\n      pop\n        /* \"#utility.yul\":1551:1603   */\n      tag_63\n        /* \"#utility.yul\":1596:1602   */\n      dup2\n        /* \"#utility.yul\":1591:1594   */\n      dup6\n        /* \"#utility.yul\":1584:1588   */\n      0x20\n        /* \"#utility.yul\":1577:1582   */\n      dup7\n        /* \"#utility.yul\":1573:1589   */\n      add\n        /* \"#utility.yul\":1551:1603   */\n      tag_64\n      jump\t// in\n    tag_63:\n        /* \"#utility.yul\":1628:1657   */\n      tag_65\n        /* \"#utility.yul\":1650:1656   */\n      dup2\n        /* \"#utility.yul\":1628:1657   */\n      tag_66\n      jump\t// in\n    tag_65:\n        /* \"#utility.yul\":1623:1626   */\n      dup5\n        /* \"#utility.yul\":1619:1658   */\n      add\n        /* \"#utility.yul\":1612:1658   */\n      swap2\n      pop\n        /* \"#utility.yul\":1392:1664   */\n      pop\n        /* \"#utility.yul\":1300:1664   */\n      swap3\n      swap2\n      pop\n      pop\n      jump\t// out\n        /* \"#utility.yul\":1670:1983   */\n    tag_13:\n        /* \"#utility.yul\":1783:1787   */\n      0x00\n        /* \"#utility.yul\":1821:1823   */\n      0x20\n        /* \"#utility.yul\":1810:1819   */\n      dup3\n        /* \"#utility.yul\":1806:1824   */\n      add\n        /* \"#utility.yul\":1798:1824   */\n      swap1\n      pop\n        /* \"#utility.yul\":1870:1879   */\n      dup2\n        /* \"#utility.yul\":1864:1868   */\n      dup2\n        /* \"#utility.yul\":1860:1880   */\n      sub\n        /* \"#utility.yul\":1856:1857   */\n      0x00\n        /* \"#utility.yul\":1845:1854   */\n      dup4\n        /* \"#utility.yul\":1841:1858   */\n      add\n        /* \"#utility.yul\":1834:1881   */\n      mstore\n        /* \"#utility.yul\":1898:1976   */\n      tag_68\n        /* \"#utility.yul\":1971:1975   */\n      dup2\n        /* \"#utility.yul\":1962:1968   */\n      dup5\n        /* \"#utility.yul\":1898:1976   */\n      tag_57\n      jump\t// in\n    tag_68:\n        /* \"#utility.yul\":1890:1976   */\n      swap1\n      pop\n        /* \"#utility.yul\":1670:1983   */\n      swap3\n      swap2\n      pop\n      pop\n      jump\t// out\n        /* \"#utility.yul\":1989:2118   */\n    tag_37:\n        /* \"#utility.yul\":2023:2029   */\n      0x00\n        /* \"#utility.yul\":2050:2070   */\n      tag_70\n      tag_71\n      jump\t// in\n    tag_70:\n        /* \"#utility.yul\":2040:2070   */\n      swap1\n      pop\n        /* \"#utility.yul\":2079:2112   */\n      tag_72\n        /* \"#utility.yul\":2107:2111   */\n      dup3\n        /* \"#utility.yul\":2099:2105   */\n      dup3\n        /* \"#utility.yul\":2079:2112   */\n      tag_73\n      jump\t// in\n    tag_72:\n        /* \"#utility.yul\":1989:2118   */\n      swap2\n      swap1\n      pop\n      jump\t// out\n        /* \"#utility.yul\":2124:2199   */\n    tag_71:\n        /* \"#utility.yul\":2157:2163   */\n      0x00\n        /* \"#utility.yul\":2190:2192   */\n      0x40\n        /* \"#utility.yul\":2184:2193   */\n      mload\n        /* \"#utility.yul\":2174:2193   */\n      swap1\n      pop\n        /* \"#utility.yul\":2124:2199   */\n      swap1\n      jump\t// out\n        /* \"#utility.yul\":2205:2513   */\n    tag_36:\n        /* \"#utility.yul\":2267:2271   */\n      0x00\n        /* \"#utility.yul\":2357:2375   */\n      0xffffffffffffffff\n        /* \"#utility.yul\":2349:2355   */\n      dup3\n        /* \"#utility.yul\":2346:2376   */\n      gt\n        /* \"#utility.yul\":2343:2399   */\n      iszero\n      tag_76\n      jumpi\n        /* \"#utility.yul\":2379:2397   */\n      tag_77\n      tag_78\n      jump\t// in\n    tag_77:\n        /* \"#utility.yul\":2343:2399   */\n    tag_76:\n        /* \"#utility.yul\":2417:2446   */\n      tag_79\n        /* \"#utility.yul\":2439:2445   */\n      dup3\n        /* \"#utility.yul\":2417:2446   */\n      tag_66\n      jump\t// in\n    tag_79:\n        /* \"#utility.yul\":2409:2446   */\n      swap1\n      pop\n        /* \"#utility.yul\":2501:2505   */\n      0x20\n        /* \"#utility.yul\":2495:2499   */\n      dup2\n        /* \"#utility.yul\":2491:2506   */\n      add\n        /* \"#utility.yul\":2483:2506   */\n      swap1\n      pop\n        /* \"#utility.yul\":2205:2513   */\n      swap2\n      swap1\n      pop\n      jump\t// out\n        /* \"#utility.yul\":2519:2618   */\n    tag_60:\n        /* \"#utility.yul\":2571:2577   */\n      0x00\n        /* \"#utility.yul\":2605:2610   */\n      dup2\n        /* \"#utility.yul\":2599:2611   */\n      mload\n        /* \"#utility.yul\":2589:2611   */\n      swap1\n      pop\n        /* \"#utility.yul\":2519:2618   */\n      swap2\n      swap1\n      pop\n      jump\t// out\n        /* \"#utility.yul\":2624:2793   */\n    tag_62:\n        /* \"#utility.yul\":2708:2719   */\n      0x00\n        /* \"#utility.yul\":2742:2748   */\n      dup3\n        /* \"#utility.yul\":2737:2740   */\n      dup3\n        /* \"#utility.yul\":2730:2749   */\n      mstore\n        /* \"#utility.yul\":2782:2786   */\n      0x20\n        /* \"#utility.yul\":2777:2780   */\n      dup3\n        /* \"#utility.yul\":2773:2787   */\n      add\n        /* \"#utility.yul\":2758:2787   */\n      swap1\n      pop\n        /* \"#utility.yul\":2624:2793   */\n      swap3\n      swap2\n      pop\n      pop\n      jump\t// out\n        /* \"#utility.yul\":2799:3104   */\n    tag_16:\n        /* \"#utility.yul\":2839:2842   */\n      0x00\n        /* \"#utility.yul\":2858:2878   */\n      tag_83\n        /* \"#utility.yul\":2876:2877   */\n      dup3\n        /* \"#utility.yul\":2858:2878   */\n      tag_84\n      jump\t// in\n    tag_83:\n        /* \"#utility.yul\":2853:2878   */\n      swap2\n      pop\n        /* \"#utility.yul\":2892:2912   */\n      tag_85\n        /* \"#utility.yul\":2910:2911   */\n      dup4\n        /* \"#utility.yul\":2892:2912   */\n      tag_84\n      jump\t// in\n    tag_85:\n        /* \"#utility.yul\":2887:2912   */\n      swap3\n      pop\n        /* \"#utility.yul\":3046:3047   */\n      dup3\n        /* \"#utility.yul\":2978:3044   */\n      0xffffffffffffffffffffffffffffffffffffffffffffffffffffffffffffffff\n        /* \"#utility.yul\":2974:3048   */\n      sub\n        /* \"#utility.yul\":2971:2972   */\n      dup3\n        /* \"#utility.yul\":2968:3049   */\n      gt\n        /* \"#utility.yul\":2965:3072   */\n      iszero\n      tag_86\n      jumpi\n        /* \"#utility.yul\":3052:3070   */\n      tag_87\n      tag_88\n      jump\t// in\n    tag_87:\n        /* \"#utility.yul\":2965:3072   */\n    tag_86:\n        /* \"#utility.yul\":3096:3097   */\n      dup3\n        /* \"#utility.yul\":3093:3094   */\n      dup3\n        /* \"#utility.yul\":3089:3098   */\n      add\n        /* \"#utility.yul\":3082:3098   */\n      swap1\n      pop\n        /* \"#utility.yul\":2799:3104   */\n      swap3\n      swap2\n      pop\n      pop\n      jump\t// out\n        /* \"#utility.yul\":3110:3187   */\n    tag_84:\n        /* \"#utility.yul\":3147:3154   */\n      0x00\n        /* \"#utility.yul\":3176:3181   */\n      dup2\n        /* \"#utility.yul\":3165:3181   */\n      swap1\n      pop\n        /* \"#utility.yul\":3110:3187   */\n      swap2\n      swap1\n      pop\n      jump\t// out\n        /* \"#utility.yul\":3193:3347   */\n    tag_42:\n        /* \"#utility.yul\":3277:3283   */\n      dup3\n        /* \"#utility.yul\":3272:3275   */\n      dup2\n        /* \"#utility.yul\":3267:3270   */\n      dup4\n        /* \"#utility.yul\":3254:3284   */\n      calldatacopy\n        /* \"#utility.yul\":3339:3340   */\n      0x00\n        /* \"#utility.yul\":3330:3336   */\n      dup4\n        /* \"#utility.yul\":3325:3328   */\n      dup4\n        /* \"#utility.yul\":3321:3337   */\n      add\n        /* \"#utility.yul\":3314:3341   */\n      mstore\n        /* \"#utility.yul\":3193:3347   */\n      pop\n      pop\n      pop\n      jump\t// out\n        /* \"#utility.yul\":3353:3660   */\n    tag_64:\n        /* \"#utility.yul\":3421:3422   */\n      0x00\n        /* \"#utility.yul\":3431:3544   */\n    tag_92:\n        /* \"#utility.yul\":3445:3451   */\n      dup4\n        /* \"#utility.yul\":3442:3443   */\n      dup2\n        /* \"#utility.yul\":3439:3452   */\n      lt\n        /* \"#utility.yul\":3431:3544   */\n      iszero\n      tag_94\n      jumpi\n        /* \"#utility.yul\":3530:3531   */\n      dup1\n        /* \"#utility.yul\":3525:3528   */\n      dup3\n        /* \"#utility.yul\":3521:3532   */\n      add\n        /* \"#utility.yul\":3515:3533   */\n      mload\n        /* \"#utility.yul\":3511:3512   */\n      dup2\n        /* \"#utility.yul\":3506:3509   */\n      dup5\n        /* \"#utility.yul\":3502:3513   */\n      add\n        /* \"#utility.yul\":3495:3534   */\n      mstore\n        /* \"#utility.yul\":3467:3469   */\n      0x20\n        /* \"#utility.yul\":3464:3465   */\n      dup2\n        /* \"#utility.yul\":3460:3470   */\n      add\n        /* \"#utility.yul\":3455:3470   */\n      swap1\n      pop\n        /* \"#utility.yul\":3431:3544   */\n      jump(tag_92)\n    tag_94:\n        /* \"#utility.yul\":3562:3568   */\n      dup4\n        /* \"#utility.yul\":3559:3560   */\n      dup2\n        /* \"#utility.yul\":3556:3569   */\n      gt\n        /* \"#utility.yul\":3553:3654   */\n      iszero\n      tag_95\n      jumpi\n        /* \"#utility.yul\":3642:3643   */\n      0x00\n        /* \"#utility.yul\":3633:3639   */\n      dup5\n        /* \"#utility.yul\":3628:3631   */\n      dup5\n        /* \"#utility.yul\":3624:3640   */\n      add\n        /* \"#utility.yul\":3617:3644   */\n      mstore\n        /* \"#utility.yul\":3553:3654   */\n    tag_95:\n        /* \"#utility.yul\":3402:3660   */\n      pop\n        /* \"#utility.yul\":3353:3660   */\n      pop\n      pop\n      pop\n      jump\t// out\n        /* \"#utility.yul\":3666:3986   */\n    tag_21:\n        /* \"#utility.yul\":3710:3716   */\n      0x00\n        /* \"#utility.yul\":3747:3748   */\n      0x02\n        /* \"#utility.yul\":3741:3745   */\n      dup3\n        /* \"#utility.yul\":3737:3749   */\n      div\n        /* \"#utility.yul\":3727:3749   */\n      swap1\n      pop\n        /* \"#utility.yul\":3794:3795   */\n      0x01\n        /* \"#utility.yul\":3788:3792   */\n      dup3\n        /* \"#utility.yul\":3784:3796   */\n      and\n        /* \"#utility.yul\":3815:3833   */\n      dup1\n        /* \"#utility.yul\":3805:3886   */\n      tag_97\n      jumpi\n        /* \"#utility.yul\":3871:3875   */\n      0x7f\n        /* \"#utility.yul\":3863:3869   */\n      dup3\n        /* \"#utility.yul\":3859:3876   */\n      and\n        /* \"#utility.yul\":3849:3876   */\n      swap2\n      pop\n        /* \"#utility.yul\":3805:3886   */\n    tag_97:\n        /* \"#utility.yul\":3933:3935   */\n      0x20\n        /* \"#utility.yul\":3925:3931   */\n      dup3\n        /* \"#utility.yul\":3922:3936   */\n      lt\n        /* \"#utility.yul\":3902:3920   */\n      dup2\n        /* \"#utility.yul\":3899:3937   */\n      eq\n        /* \"#utility.yul\":3896:3980   */\n      iszero\n      tag_98\n      jumpi\n        /* \"#utility.yul\":3952:3970   */\n      tag_99\n      tag_100\n      jump\t// in\n    tag_99:\n        /* \"#utility.yul\":3896:3980   */\n    tag_98:\n        /* \"#utility.yul\":3717:3986   */\n      pop\n        /* \"#utility.yul\":3666:3986   */\n      swap2\n      swap1\n      pop\n      jump\t// out\n        /* \"#utility.yul\":3992:4273   */\n    tag_73:\n        /* \"#utility.yul\":4075:4102   */\n      tag_102\n        /* \"#utility.yul\":4097:4101   */\n      dup3\n        /* \"#utility.yul\":4075:4102   */\n      tag_66\n      jump\t// in\n    tag_102:\n        /* \"#utility.yul\":4067:4073   */\n      dup2\n        /* \"#utility.yul\":4063:4103   */\n      add\n        /* \"#utility.yul\":4205:4211   */\n      dup2\n        /* \"#utility.yul\":4193:4203   */\n      dup2\n        /* \"#utility.yul\":4190:4212   */\n      lt\n        /* \"#utility.yul\":4169:4187   */\n      0xffffffffffffffff\n        /* \"#utility.yul\":4157:4167   */\n      dup3\n        /* \"#utility.yul\":4154:4188   */\n      gt\n        /* \"#utility.yul\":4151:4213   */\n      or\n        /* \"#utility.yul\":4148:4236   */\n      iszero\n      tag_103\n      jumpi\n        /* \"#utility.yul\":4216:4234   */\n      tag_104\n      tag_78\n      jump\t// in\n    tag_104:\n        /* \"#utility.yul\":4148:4236   */\n    tag_103:\n        /* \"#utility.yul\":4256:4266   */\n      dup1\n        /* \"#utility.yul\":4252:4254   */\n      0x40\n        /* \"#utility.yul\":4245:4267   */\n      mstore\n        /* \"#utility.yul\":4035:4273   */\n      pop\n        /* \"#utility.yul\":3992:4273   */\n      pop\n      pop\n      jump\t// out\n        /* \"#utility.yul\":4279:4459   */\n    tag_88:\n        /* \"#utility.yul\":4327:4404   */\n      0x4e487b7100000000000000000000000000000000000000000000000000000000\n        /* \"#utility.yul\":4324:4325   */\n      0x00\n        /* \"#utility.yul\":4317:4405   */\n      mstore\n        /* \"#utility.yul\":4424:4428   */\n      0x11\n        /* \"#utility.yul\":4421:4422   */\n      0x04\n        /* \"#utility.yul\":4414:4429   */\n      mstore\n        /* \"#utility.yul\":4448:4452   */\n      0x24\n        /* \"#utility.yul\":4445:4446   */\n      0x00\n        /* \"#utility.yul\":4438:4453   */\n      revert\n        /* \"#utility.yul\":4465:4645   */\n    tag_100:\n        /* \"#utility.yul\":4513:4590   */\n      0x4e487b7100000000000000000000000000000000000000000000000000000000\n        /* \"#utility.yul\":4510:4511   */\n      0x00\n        /* \"#utility.yul\":4503:4591   */\n      mstore\n        /* \"#utility.yul\":4610:4614   */\n      0x22\n        /* \"#utility.yul\":4607:4608   */\n      0x04\n        /* \"#utility.yul\":4600:4615   */\n      mstore\n        /* \"#utility.yul\":4634:4638   */\n      0x24\n        /* \"#utility.yul\":4631:4632   */\n      0x00\n        /* \"#utility.yul\":4624:4639   */\n      revert\n        /* \"#utility.yul\":4651:4831   */\n    tag_78:\n        /* \"#utility.yul\":4699:4776   */\n      0x4e487b7100000000000000000000000000000000000000000000000000000000\n        /* \"#utility.yul\":4696:4697   */\n      0x00\n        /* \"#utility.yul\":4689:4777   */\n      mstore\n        /* \"#utility.yul\":4796:4800   */\n      0x41\n        /* \"#utility.yul\":4793:4794   */\n      0x04\n        /* \"#utility.yul\":4786:4801   */\n      mstore\n        /* \"#utility.yul\":4820:4824   */\n      0x24\n        /* \"#utility.yul\":4817:4818   */\n      0x00\n        /* \"#utility.yul\":4810:4825   */\n      revert\n        /* \"#utility.yul\":4837:4954   */\n    tag_47:\n        /* \"#utility.yul\":4946:4947   */\n      0x00\n        /* \"#utility.yul\":4943:4944   */\n      dup1\n        /* \"#utility.yul\":4936:4948   */\n      revert\n        /* \"#utility.yul\":4960:5077   */\n    tag_40:\n        /* \"#utility.yul\":5069:5070   */\n      0x00\n        /* \"#utility.yul\":5066:5067   */\n      dup1\n        /* \"#utility.yul\":5059:5071   */\n      revert\n        /* \"#utility.yul\":5083:5200   */\n    tag_55:\n        /* \"#utility.yul\":5192:5193   */\n      0x00\n        /* \"#utility.yul\":5189:5190   */\n      dup1\n        /* \"#utility.yul\":5182:5194   */\n      revert\n        /* \"#utility.yul\":5206:5323   */\n    tag_52:\n        /* \"#utility.yul\":5315:5316   */\n      0x00\n        /* \"#utility.yul\":5312:5313   */\n      dup1\n        /* \"#utility.yul\":5305:5317   */\n      revert\n        /* \"#utility.yul\":5329:5431   */\n    tag_66:\n        /* \"#utility.yul\":5370:5376   */\n      0x00\n        /* \"#utility.yul\":5421:5423   */\n      0x1f\n        /* \"#utility.yul\":5417:5424   */\n      not\n        /* \"#utility.yul\":5412:5414   */\n      0x1f\n        /* \"#utility.yul\":5405:5410   */\n      dup4\n        /* \"#utility.yul\":5401:5415   */\n      add\n        /* \"#utility.yul\":5397:5425   */\n      and\n        /* \"#utility.yul\":5387:5425   */\n      swap1\n      pop\n        /* \"#utility.yul\":5329:5431   */\n      swap2\n      swap1\n      pop\n      jump\t// out\n\n    auxdata: 0xa264697066735822122015b200efed17415e6eccdebc13f9d61bee1801e635237fdf3f3b0f2b87143b9c64736f6c63430008070033\n}\n",
				"bytecode": {
					"linkReferences": {},
					"object": "6080604052600060015534801561001557600080fd5b506104e4806100256000396000f3fe608060405234801561001057600080fd5b50600436106100365760003560e01c8063340a8f6e1461003b578063a85009be14610057575b600080fd5b610055600480360381019061005091906101e1565b610087565b005b610071600480360381019061006c91906101e1565b6100c7565b60405161007e9190610263565b60405180910390f35b6001805461009591906102f7565b60018190555080600080600154815260200190815260200160002090805190602001906100c39291906100ce565b5050565b6060919050565b8280546100da90610399565b90600052602060002090601f0160209004810192826100fc5760008555610143565b82601f1061011557805160ff1916838001178555610143565b82800160010185558215610143579182015b82811115610142578251825591602001919060010190610127565b5b5090506101509190610154565b5090565b5b8082111561016d576000816000905550600101610155565b5090565b600061018461017f846102aa565b610285565b9050828152602081018484840111156101a05761019f61048e565b5b6101ab848285610357565b509392505050565b600082601f8301126101c8576101c7610489565b5b81356101d8848260208601610171565b91505092915050565b6000602082840312156101f7576101f6610498565b5b600082013567ffffffffffffffff81111561021557610214610493565b5b610221848285016101b3565b91505092915050565b6000610235826102db565b61023f81856102e6565b935061024f818560208601610366565b6102588161049d565b840191505092915050565b6000602082019050818103600083015261027d818461022a565b905092915050565b600061028f6102a0565b905061029b82826103cb565b919050565b6000604051905090565b600067ffffffffffffffff8211156102c5576102c461045a565b5b6102ce8261049d565b9050602081019050919050565b600081519050919050565b600082825260208201905092915050565b60006103028261034d565b915061030d8361034d565b9250827fffffffffffffffffffffffffffffffffffffffffffffffffffffffffffffffff03821115610342576103416103fc565b5b828201905092915050565b6000819050919050565b82818337600083830152505050565b60005b83811015610384578082015181840152602081019050610369565b83811115610393576000848401525b50505050565b600060028204905060018216806103b157607f821691505b602082108114156103c5576103c461042b565b5b50919050565b6103d48261049d565b810181811067ffffffffffffffff821117156103f3576103f261045a565b5b80604052505050565b7f4e487b7100000000000000000000000000000000000000000000000000000000600052601160045260246000fd5b7f4e487b7100000000000000000000000000000000000000000000000000000000600052602260045260246000fd5b7f4e487b7100000000000000000000000000000000000000000000000000000000600052604160045260246000fd5b600080fd5b600080fd5b600080fd5b600080fd5b6000601f19601f830116905091905056fea264697066735822122015b200efed17415e6eccdebc13f9d61bee1801e635237fdf3f3b0f2b87143b9c64736f6c63430008070033",
					"opcodes": "PUSH1 0x80 PUSH1 0x40 MSTORE PUSH1 0x0 PUSH1 0x1 SSTORE CALLVALUE DUP1 ISZERO PUSH2 0x15 JUMPI PUSH1 0x0 DUP1 REVERT JUMPDEST POP PUSH2 0x4E4 DUP1 PUSH2 0x25 PUSH1 0x0 CODECOPY PUSH1 0x0 RETURN INVALID PUSH1 0x80 PUSH1 0x40 MSTORE CALLVALUE DUP1 ISZERO PUSH2 0x10 JUMPI PUSH1 0x0 DUP1 REVERT JUMPDEST POP PUSH1 0x4 CALLDATASIZE LT PUSH2 0x36 JUMPI PUSH1 0x0 CALLDATALOAD PUSH1 0xE0 SHR DUP1 PUSH4 0x340A8F6E EQ PUSH2 0x3B JUMPI DUP1 PUSH4 0xA85009BE EQ PUSH2 0x57 JUMPI JUMPDEST PUSH1 0x0 DUP1 REVERT JUMPDEST PUSH2 0x55 PUSH1 0x4 DUP1 CALLDATASIZE SUB DUP2 ADD SWAP1 PUSH2 0x50 SWAP2 SWAP1 PUSH2 0x1E1 JUMP JUMPDEST PUSH2 0x87 JUMP JUMPDEST STOP JUMPDEST PUSH2 0x71 PUSH1 0x4 DUP1 CALLDATASIZE SUB DUP2 ADD SWAP1 PUSH2 0x6C SWAP2 SWAP1 PUSH2 0x1E1 JUMP JUMPDEST PUSH2 0xC7 JUMP JUMPDEST PUSH1 0x40 MLOAD PUSH2 0x7E SWAP2 SWAP1 PUSH2 0x263 JUMP JUMPDEST PUSH1 0x40 MLOAD DUP1 SWAP2 SUB SWAP1 RETURN JUMPDEST PUSH1 0x1 DUP1 SLOAD PUSH2 0x95 SWAP2 SWAP1 PUSH2 0x2F7 JUMP JUMPDEST PUSH1 0x1 DUP2 SWAP1 SSTORE POP DUP1 PUSH1 0x0 DUP1 PUSH1 0x1 SLOAD DUP2 MSTORE PUSH1 0x20 ADD SWAP1 DUP2 MSTORE PUSH1 0x20 ADD PUSH1 0x0 KECCAK256 SWAP1 DUP1 MLOAD SWAP1 PUSH1 0x20 ADD SWAP1 PUSH2 0xC3 SWAP3 SWAP2 SWAP1 PUSH2 0xCE JUMP JUMPDEST POP POP JUMP JUMPDEST PUSH1 0x60 SWAP2 SWAP1 POP JUMP JUMPDEST DUP3 DUP1 SLOAD PUSH2 0xDA SWAP1 PUSH2 0x399 JUMP JUMPDEST SWAP1 PUSH1 0x0 MSTORE PUSH1 0x20 PUSH1 0x0 KECCAK256 SWAP1 PUSH1 0x1F ADD PUSH1 0x20 SWAP1 DIV DUP2 ADD SWAP3 DUP3 PUSH2 0xFC JUMPI PUSH1 0x0 DUP6 SSTORE PUSH2 0x143 JUMP JUMPDEST DUP3 PUSH1 0x1F LT PUSH2 0x115 JUMPI DUP1 MLOAD PUSH1 0xFF NOT AND DUP4 DUP1 ADD OR DUP6 SSTORE PUSH2 0x143 JUMP JUMPDEST DUP3 DUP1 ADD PUSH1 0x1 ADD DUP6 SSTORE DUP3 ISZERO PUSH2 0x143 JUMPI SWAP2 DUP3 ADD JUMPDEST DUP3 DUP2 GT ISZERO PUSH2 0x142 JUMPI DUP3 MLOAD DUP3 SSTORE SWAP2 PUSH1 0x20 ADD SWAP2 SWAP1 PUSH1 0x1 ADD SWAP1 PUSH2 0x127 JUMP JUMPDEST JUMPDEST POP SWAP1 POP PUSH2 0x150 SWAP2 SWAP1 PUSH2 0x154 JUMP JUMPDEST POP SWAP1 JUMP JUMPDEST JUMPDEST DUP1 DUP3 GT ISZERO PUSH2 0x16D JUMPI PUSH1 0x0 DUP2 PUSH1 0x0 SWAP1 SSTORE POP PUSH1 0x1 ADD PUSH2 0x155 JUMP JUMPDEST POP SWAP1 JUMP JUMPDEST PUSH1 0x0 PUSH2 0x184 PUSH2 0x17F DUP5 PUSH2 0x2AA JUMP JUMPDEST PUSH2 0x285 JUMP JUMPDEST SWAP1 POP DUP3 DUP2 MSTORE PUSH1 0x20 DUP2 ADD DUP5 DUP5 DUP5 ADD GT ISZERO PUSH2 0x1A0 JUMPI PUSH2 0x19F PUSH2 0x48E JUMP JUMPDEST JUMPDEST PUSH2 0x1AB DUP5 DUP3 DUP6 PUSH2 0x357 JUMP JUMPDEST POP SWAP4 SWAP3 POP POP POP JUMP JUMPDEST PUSH1 0x0 DUP3 PUSH1 0x1F DUP4 ADD SLT PUSH2 0x1C8 JUMPI PUSH2 0x1C7 PUSH2 0x489 JUMP JUMPDEST JUMPDEST DUP2 CALLDATALOAD PUSH2 0x1D8 DUP5 DUP3 PUSH1 0x20 DUP7 ADD PUSH2 0x171 JUMP JUMPDEST SWAP2 POP POP SWAP3 SWAP2 POP POP JUMP JUMPDEST PUSH1 0x0 PUSH1 0x20 DUP3 DUP5 SUB SLT ISZERO PUSH2 0x1F7 JUMPI PUSH2 0x1F6 PUSH2 0x498 JUMP JUMPDEST JUMPDEST PUSH1 0x0 DUP3 ADD CALLDATALOAD PUSH8 0xFFFFFFFFFFFFFFFF DUP2 GT ISZERO PUSH2 0x215 JUMPI PUSH2 0x214 PUSH2 0x493 JUMP JUMPDEST JUMPDEST PUSH2 0x221 DUP5 DUP3 DUP6 ADD PUSH2 0x1B3 JUMP JUMPDEST SWAP2 POP POP SWAP3 SWAP2 POP POP JUMP JUMPDEST PUSH1 0x0 PUSH2 0x235 DUP3 PUSH2 0x2DB JUMP JUMPDEST PUSH2 0x23F DUP2 DUP6 PUSH2 0x2E6 JUMP JUMPDEST SWAP4 POP PUSH2 0x24F DUP2 DUP6 PUSH1 0x20 DUP7 ADD PUSH2 0x366 JUMP JUMPDEST PUSH2 0x258 DUP2 PUSH2 0x49D JUMP JUMPDEST DUP5 ADD SWAP2 POP POP SWAP3 SWAP2 POP POP JUMP JUMPDEST PUSH1 0x0 PUSH1 0x20 DUP3 ADD SWAP1 POP DUP2 DUP2 SUB PUSH1 0x0 DUP4 ADD MSTORE PUSH2 0x27D DUP2 DUP5 PUSH2 0x22A JUMP JUMPDEST SWAP1 POP SWAP3 SWAP2 POP POP JUMP JUMPDEST PUSH1 0x0 PUSH2 0x28F PUSH2 0x2A0 JUMP JUMPDEST SWAP1 POP PUSH2 0x29B DUP3 DUP3 PUSH2 0x3CB JUMP JUMPDEST SWAP2 SWAP1 POP JUMP JUMPDEST PUSH1 0x0 PUSH1 0x40 MLOAD SWAP1 POP SWAP1 JUMP JUMPDEST PUSH1 0x0 PUSH8 0xFFFFFFFFFFFFFFFF DUP3 GT ISZERO PUSH2 0x2C5 JUMPI PUSH2 0x2C4 PUSH2 0x45A JUMP JUMPDEST JUMPDEST PUSH2 0x2CE DUP3 PUSH2 0x49D JUMP JUMPDEST SWAP1 POP PUSH1 0x20 DUP2 ADD SWAP1 POP SWAP2 SWAP1 POP JUMP JUMPDEST PUSH1 0x0 DUP2 MLOAD SWAP1 POP SWAP2 SWAP1 POP JUMP JUMPDEST PUSH1 0x0 DUP3 DUP3 MSTORE PUSH1 0x20 DUP3 ADD SWAP1 POP SWAP3 SWAP2 POP POP JUMP JUMPDEST PUSH1 0x0 PUSH2 0x302 DUP3 PUSH2 0x34D JUMP JUMPDEST SWAP2 POP PUSH2 0x30D DUP4 PUSH2 0x34D JUMP JUMPDEST SWAP3 POP DUP3 PUSH32 0xFFFFFFFFFFFFFFFFFFFFFFFFFFFFFFFFFFFFFFFFFFFFFFFFFFFFFFFFFFFFFFFF SUB DUP3 GT ISZERO PUSH2 0x342 JUMPI PUSH2 0x341 PUSH2 0x3FC JUMP JUMPDEST JUMPDEST DUP3 DUP3 ADD SWAP1 POP SWAP3 SWAP2 POP POP JUMP JUMPDEST PUSH1 0x0 DUP2 SWAP1 POP SWAP2 SWAP1 POP JUMP JUMPDEST DUP3 DUP2 DUP4 CALLDATACOPY PUSH1 0x0 DUP4 DUP4 ADD MSTORE POP POP POP JUMP JUMPDEST PUSH1 0x0 JUMPDEST DUP4 DUP2 LT ISZERO PUSH2 0x384 JUMPI DUP1 DUP3 ADD MLOAD DUP2 DUP5 ADD MSTORE PUSH1 0x20 DUP2 ADD SWAP1 POP PUSH2 0x369 JUMP JUMPDEST DUP4 DUP2 GT ISZERO PUSH2 0x393 JUMPI PUSH1 0x0 DUP5 DUP5 ADD MSTORE JUMPDEST POP POP POP POP JUMP JUMPDEST PUSH1 0x0 PUSH1 0x2 DUP3 DIV SWAP1 POP PUSH1 0x1 DUP3 AND DUP1 PUSH2 0x3B1 JUMPI PUSH1 0x7F DUP3 AND SWAP2 POP JUMPDEST PUSH1 0x20 DUP3 LT DUP2 EQ ISZERO PUSH2 0x3C5 JUMPI PUSH2 0x3C4 PUSH2 0x42B JUMP JUMPDEST JUMPDEST POP SWAP2 SWAP1 POP JUMP JUMPDEST PUSH2 0x3D4 DUP3 PUSH2 0x49D JUMP JUMPDEST DUP2 ADD DUP2 DUP2 LT PUSH8 0xFFFFFFFFFFFFFFFF DUP3 GT OR ISZERO PUSH2 0x3F3 JUMPI PUSH2 0x3F2 PUSH2 0x45A JUMP JUMPDEST JUMPDEST DUP1 PUSH1 0x40 MSTORE POP POP POP JUMP JUMPDEST PUSH32 0x4E487B7100000000000000000000000000000000000000000000000000000000 PUSH1 0x0 MSTORE PUSH1 0x11 PUSH1 0x4 MSTORE PUSH1 0x24 PUSH1 0x0 REVERT JUMPDEST PUSH32 0x4E487B7100000000000000000000000000000000000000000000000000000000 PUSH1 0x0 MSTORE PUSH1 0x22 PUSH1 0x4 MSTORE PUSH1 0x24 PUSH1 0x0 REVERT JUMPDEST PUSH32 0x4E487B7100000000000000000000000000000000000000000000000000000000 PUSH1 0x0 MSTORE PUSH1 0x41 PUSH1 0x4 MSTORE PUSH1 0x24 PUSH1 0x0 REVERT JUMPDEST PUSH1 0x0 DUP1 REVERT JUMPDEST PUSH1 0x0 DUP1 REVERT JUMPDEST PUSH1 0x0 DUP1 REVERT JUMPDEST PUSH1 0x0 DUP1 REVERT JUMPDEST PUSH1 0x0 PUSH1 0x1F NOT PUSH1 0x1F DUP4 ADD AND SWAP1 POP SWAP2 SWAP1 POP JUMP INVALID LOG2 PUSH5 0x6970667358 0x22 SLT KECCAK256 ISZERO 0xB2 STOP 0xEF 0xED OR COINBASE 0x5E PUSH15 0xCCDEBC13F9D61BEE1801E635237FDF EXTCODEHASH EXTCODESIZE 0xF 0x2B DUP8 EQ EXTCODESIZE SWAP13 PUSH5 0x736F6C6343 STOP ADDMOD SMOD STOP CALLER "
				},
				"gasEstimates": {
					"creation": {
						"codeDepositCost": "250400",
						"executionCost": "5300",
						"totalCost": "255700"
					},
					"external": {
						"addMonth(string)": "infinite",
						"getMonth(string)": "infinite"
					}
				},
				"methodIdentifiers": {
					"addMonth(string)": "340a8f6e",
					"getMonth(string)": "a85009be"
				}
			},
			"storageLayout": {
				"storage": [
					{
						"astId": 5,
						"contract": "contracts/2_monthStore.sol:MonthStore",
						"label": "months",
						"offset": 0,
						"slot": "0",
						"type": "t_mapping(t_uint256,t_string_storage)"
					},
					{
						"astId": 8,
						"contract": "contracts/2_monthStore.sol:MonthStore",
						"label": "count",
						"offset": 0,
						"slot": "1",
						"type": "t_uint256"
					}
				],
				"types": {
					"t_mapping(t_uint256,t_string_storage)": {
						"encoding": "mapping",
						"key": "t_uint256",
						"label": "mapping(uint256 => string)",
						"numberOfBytes": "32",
						"value": "t_string_storage"
					},
					"t_string_storage": {
						"encoding": "bytes",
						"label": "string",
						"numberOfBytes": "32"
					},
					"t_uint256": {
						"encoding": "inplace",
						"label": "uint256",
						"numberOfBytes": "32"
					}
				}
			},
			"userdoc": {
				"kind": "user",
				"methods": {},
				"version": 1
			}
		}
	}
}