{
	"data": {
		"bytecode": {
			"linkReferences": {},
			"object": "608060405234801561001057600080fd5b5061098e806100206000396000f3fe608060405234801561001057600080fd5b50600436106100415760003560e01c80630557bcc8146100465780630c7a16be14610077578063e34f122114610095575b600080fd5b610060600480360381019061005b91906104cd565b6100b1565b60405161006e9291906106ce565b60405180910390f35b61007f610187565b60405161008c91906106ac565b60405180910390f35b6100af60048036038101906100aa919061050d565b6102cf565b005b600060205281600052604060002081815481106100cd57600080fd5b9060005260206000209060020201600091509150508060000180546100f190610844565b80601f016020809104026020016040519081016040528092919081815260200182805461011d90610844565b801561016a5780601f1061013f5761010080835404028352916020019161016a565b820191906000526020600020905b81548152906001019060200180831161014d57829003601f168201915b5050505050908060010160009054906101000a900460ff16905082565b60606000803373ffffffffffffffffffffffffffffffffffffffff1673ffffffffffffffffffffffffffffffffffffffff168152602001908152602001600020805480602002602001604051908101604052809291908181526020016000905b828210156102c6578382906000526020600020906002020160405180604001604052908160008201805461021a90610844565b80601f016020809104026020016040519081016040528092919081815260200182805461024690610844565b80156102935780601f1061026857610100808354040283529160200191610293565b820191906000526020600020905b81548152906001019060200180831161027657829003601f168201915b505050505081526020016001820160009054906101000a900460ff161515151581525050815260200190600101906101e7565b50505050905090565b6000803373ffffffffffffffffffffffffffffffffffffffff1673ffffffffffffffffffffffffffffffffffffffff1681526020019081526020016000206040518060400160405280838152602001600015158152509080600181540180825580915050600190039060005260206000209060020201600090919091909150600082015181600001908051906020019061036a929190610390565b5060208201518160010160006101000a81548160ff021916908315150217905550505050565b82805461039c90610844565b90600052602060002090601f0160209004810192826103be5760008555610405565b82601f106103d757805160ff1916838001178555610405565b82800160010185558215610405579182015b828111156104045782518255916020019190600101906103e9565b5b5090506104129190610416565b5090565b5b8082111561042f576000816000905550600101610417565b5090565b600061044661044184610723565b6106fe565b9050828152602081018484840111156104625761046161090a565b5b61046d848285610802565b509392505050565b6000813590506104848161092a565b92915050565b600082601f83011261049f5761049e610905565b5b81356104af848260208601610433565b91505092915050565b6000813590506104c781610941565b92915050565b600080604083850312156104e4576104e3610914565b5b60006104f285828601610475565b9250506020610503858286016104b8565b9150509250929050565b60006020828403121561052357610522610914565b5b600082013567ffffffffffffffff8111156105415761054061090f565b5b61054d8482850161048a565b91505092915050565b6000610562838361066f565b905092915050565b600061057582610764565b61057f8185610787565b93508360208202850161059185610754565b8060005b858110156105cd57848403895281516105ae8582610556565b94506105b98361077a565b925060208a01995050600181019050610595565b50829750879550505050505092915050565b6105e8816107cc565b82525050565b6105f7816107cc565b82525050565b60006106088261076f565b6106128185610798565b9350610622818560208601610811565b61062b81610919565b840191505092915050565b60006106418261076f565b61064b81856107a9565b935061065b818560208601610811565b61066481610919565b840191505092915050565b6000604083016000830151848203600086015261068c82826105fd565b91505060208301516106a160208601826105df565b508091505092915050565b600060208201905081810360008301526106c6818461056a565b905092915050565b600060408201905081810360008301526106e88185610636565b90506106f760208301846105ee565b9392505050565b6000610708610719565b90506107148282610876565b919050565b6000604051905090565b600067ffffffffffffffff82111561073e5761073d6108d6565b5b61074782610919565b9050602081019050919050565b6000819050602082019050919050565b600081519050919050565b600081519050919050565b6000602082019050919050565b600082825260208201905092915050565b600082825260208201905092915050565b600082825260208201905092915050565b60006107c5826107d8565b9050919050565b60008115159050919050565b600073ffffffffffffffffffffffffffffffffffffffff82169050919050565b6000819050919050565b82818337600083830152505050565b60005b8381101561082f578082015181840152602081019050610814565b8381111561083e576000848401525b50505050565b6000600282049050600182168061085c57607f821691505b602082108114156108705761086f6108a7565b5b50919050565b61087f82610919565b810181811067ffffffffffffffff8211171561089e5761089d6108d6565b5b80604052505050565b7f4e487b7100000000000000000000000000000000000000000000000000000000600052602260045260246000fd5b7f4e487b7100000000000000000000000000000000000000000000000000000000600052604160045260246000fd5b600080fd5b600080fd5b600080fd5b600080fd5b6000601f19601f8301169050919050565b610933816107ba565b811461093e57600080fd5b50565b61094a816107f8565b811461095557600080fd5b5056fea2646970667358221220c6a937442865df36338acc9561124f3fe50e7e74353e3a5f17d8582cfc464ddb64736f6c63430008070033",
			"opcodes": "PUSH1 0x80 PUSH1 0x40 MSTORE CALLVALUE DUP1 ISZERO PUSH2 0x10 JUMPI PUSH1 0x0 DUP1 REVERT JUMPDEST POP PUSH2 0x98E DUP1 PUSH2 0x20 PUSH1 0x0 CODECOPY PUSH1 0x0 RETURN INVALID PUSH1 0x80 PUSH1 0x40 MSTORE CALLVALUE DUP1 ISZERO PUSH2 0x10 JUMPI PUSH1 0x0 DUP1 REVERT JUMPDEST POP PUSH1 0x4 CALLDATASIZE LT PUSH2 0x41 JUMPI PUSH1 0x0 CALLDATALOAD PUSH1 0xE0 SHR DUP1 PUSH4 0x557BCC8 EQ PUSH2 0x46 JUMPI DUP1 PUSH4 0xC7A16BE EQ PUSH2 0x77 JUMPI DUP1 PUSH4 0xE34F1221 EQ PUSH2 0x95 JUMPI JUMPDEST PUSH1 0x0 DUP1 REVERT JUMPDEST PUSH2 0x60 PUSH1 0x4 DUP1 CALLDATASIZE SUB DUP2 ADD SWAP1 PUSH2 0x5B SWAP2 SWAP1 PUSH2 0x4CD JUMP JUMPDEST PUSH2 0xB1 JUMP JUMPDEST PUSH1 0x40 MLOAD PUSH2 0x6E SWAP3 SWAP2 SWAP1 PUSH2 0x6CE JUMP JUMPDEST PUSH1 0x40 MLOAD DUP1 SWAP2 SUB SWAP1 RETURN JUMPDEST PUSH2 0x7F PUSH2 0x187 JUMP JUMPDEST PUSH1 0x40 MLOAD PUSH2 0x8C SWAP2 SWAP1 PUSH2 0x6AC JUMP JUMPDEST PUSH1 0x40 MLOAD DUP1 SWAP2 SUB SWAP1 RETURN JUMPDEST PUSH2 0xAF PUSH1 0x4 DUP1 CALLDATASIZE SUB DUP2 ADD SWAP1 PUSH2 0xAA SWAP2 SWAP1 PUSH2 0x50D JUMP JUMPDEST PUSH2 0x2CF JUMP JUMPDEST STOP JUMPDEST PUSH1 0x0 PUSH1 0x20 MSTORE DUP2 PUSH1 0x0 MSTORE PUSH1 0x40 PUSH1 0x0 KECCAK256 DUP2 DUP2 SLOAD DUP2 LT PUSH2 0xCD JUMPI PUSH1 0x0 DUP1 REVERT JUMPDEST SWAP1 PUSH1 0x0 MSTORE PUSH1 0x20 PUSH1 0x0 KECCAK256 SWAP1 PUSH1 0x2 MUL ADD PUSH1 0x0 SWAP2 POP SWAP2 POP POP DUP1 PUSH1 0x0 ADD DUP1 SLOAD PUSH2 0xF1 SWAP1 PUSH2 0x844 JUMP JUMPDEST DUP1 PUSH1 0x1F ADD PUSH1 0x20 DUP1 SWAP2 DIV MUL PUSH1 0x20 ADD PUSH1 0x40 MLOAD SWAP1 DUP2 ADD PUSH1 0x40 MSTORE DUP1 SWAP3 SWAP2 SWAP1 DUP2 DUP2 MSTORE PUSH1 0x20 ADD DUP3 DUP1 SLOAD PUSH2 0x11D SWAP1 PUSH2 0x844 JUMP JUMPDEST DUP1 ISZERO PUSH2 0x16A JUMPI DUP1 PUSH1 0x1F LT PUSH2 0x13F JUMPI PUSH2 0x100 DUP1 DUP4 SLOAD DIV MUL DUP4 MSTORE SWAP2 PUSH1 0x20 ADD SWAP2 PUSH2 0x16A JUMP JUMPDEST DUP3 ADD SWAP2 SWAP1 PUSH1 0x0 MSTORE PUSH1 0x20 PUSH1 0x0 KECCAK256 SWAP1 JUMPDEST DUP2 SLOAD DUP2 MSTORE SWAP1 PUSH1 0x1 ADD SWAP1 PUSH1 0x20 ADD DUP1 DUP4 GT PUSH2 0x14D JUMPI DUP3 SWAP1 SUB PUSH1 0x1F AND DUP3 ADD SWAP2 JUMPDEST POP POP POP POP POP SWAP1 DUP1 PUSH1 0x1 ADD PUSH1 0x0 SWAP1 SLOAD SWAP1 PUSH2 0x100 EXP SWAP1 DIV PUSH1 0xFF AND SWAP1 POP DUP3 JUMP JUMPDEST PUSH1 0x60 PUSH1 0x0 DUP1 CALLER PUSH20 0xFFFFFFFFFFFFFFFFFFFFFFFFFFFFFFFFFFFFFFFF AND PUSH20 0xFFFFFFFFFFFFFFFFFFFFFFFFFFFFFFFFFFFFFFFF AND DUP2 MSTORE PUSH1 0x20 ADD SWAP1 DUP2 MSTORE PUSH1 0x20 ADD PUSH1 0x0 KECCAK256 DUP1 SLOAD DUP1 PUSH1 0x20 MUL PUSH1 0x20 ADD PUSH1 0x40 MLOAD SWAP1 DUP2 ADD PUSH1 0x40 MSTORE DUP1 SWAP3 SWAP2 SWAP1 DUP2 DUP2 MSTORE PUSH1 0x20 ADD PUSH1 0x0 SWAP1 JUMPDEST DUP3 DUP3 LT ISZERO PUSH2 0x2C6 JUMPI DUP4 DUP3 SWAP1 PUSH1 0x0 MSTORE PUSH1 0x20 PUSH1 0x0 KECCAK256 SWAP1 PUSH1 0x2 MUL ADD PUSH1 0x40 MLOAD DUP1 PUSH1 0x40 ADD PUSH1 0x40 MSTORE SWAP1 DUP2 PUSH1 0x0 DUP3 ADD DUP1 SLOAD PUSH2 0x21A SWAP1 PUSH2 0x844 JUMP JUMPDEST DUP1 PUSH1 0x1F ADD PUSH1 0x20 DUP1 SWAP2 DIV MUL PUSH1 0x20 ADD PUSH1 0x40 MLOAD SWAP1 DUP2 ADD PUSH1 0x40 MSTORE DUP1 SWAP3 SWAP2 SWAP1 DUP2 DUP2 MSTORE PUSH1 0x20 ADD DUP3 DUP1 SLOAD PUSH2 0x246 SWAP1 PUSH2 0x844 JUMP JUMPDEST DUP1 ISZERO PUSH2 0x293 JUMPI DUP1 PUSH1 0x1F LT PUSH2 0x268 JUMPI PUSH2 0x100 DUP1 DUP4 SLOAD DIV MUL DUP4 MSTORE SWAP2 PUSH1 0x20 ADD SWAP2 PUSH2 0x293 JUMP JUMPDEST DUP3 ADD SWAP2 SWAP1 PUSH1 0x0 MSTORE PUSH1 0x20 PUSH1 0x0 KECCAK256 SWAP1 JUMPDEST DUP2 SLOAD DUP2 MSTORE SWAP1 PUSH1 0x1 ADD SWAP1 PUSH1 0x20 ADD DUP1 DUP4 GT PUSH2 0x276 JUMPI DUP3 SWAP1 SUB PUSH1 0x1F AND DUP3 ADD SWAP2 JUMPDEST POP POP POP POP POP DUP2 MSTORE PUSH1 0x20 ADD PUSH1 0x1 DUP3 ADD PUSH1 0x0 SWAP1 SLOAD SWAP1 PUSH2 0x100 EXP SWAP1 DIV PUSH1 0xFF AND ISZERO ISZERO ISZERO ISZERO DUP2 MSTORE POP POP DUP2 MSTORE PUSH1 0x20 ADD SWAP1 PUSH1 0x1 ADD SWAP1 PUSH2 0x1E7 JUMP JUMPDEST POP POP POP POP SWAP1 POP SWAP1 JUMP JUMPDEST PUSH1 0x0 DUP1 CALLER PUSH20 0xFFFFFFFFFFFFFFFFFFFFFFFFFFFFFFFFFFFFFFFF AND PUSH20 0xFFFFFFFFFFFFFFFFFFFFFFFFFFFFFFFFFFFFFFFF AND DUP2 MSTORE PUSH1 0x20 ADD SWAP1 DUP2 MSTORE PUSH1 0x20 ADD PUSH1 0x0 KECCAK256 PUSH1 0x40 MLOAD DUP1 PUSH1 0x40 ADD PUSH1 0x40 MSTORE DUP1 DUP4 DUP2 MSTORE PUSH1 0x20 ADD PUSH1 0x0 ISZERO ISZERO DUP2 MSTORE POP SWAP1 DUP1 PUSH1 0x1 DUP2 SLOAD ADD DUP1 DUP3 SSTORE DUP1 SWAP2 POP POP PUSH1 0x1 SWAP1 SUB SWAP1 PUSH1 0x0 MSTORE PUSH1 0x20 PUSH1 0x0 KECCAK256 SWAP1 PUSH1 0x2 MUL ADD PUSH1 0x0 SWAP1 SWAP2 SWAP1 SWAP2 SWAP1 SWAP2 POP PUSH1 0x0 DUP3 ADD MLOAD DUP2 PUSH1 0x0 ADD SWAP1 DUP1 MLOAD SWAP1 PUSH1 0x20 ADD SWAP1 PUSH2 0x36A SWAP3 SWAP2 SWAP1 PUSH2 0x390 JUMP JUMPDEST POP PUSH1 0x20 DUP3 ADD MLOAD DUP2 PUSH1 0x1 ADD PUSH1 0x0 PUSH2 0x100 EXP DUP2 SLOAD DUP2 PUSH1 0xFF MUL NOT AND SWAP1 DUP4 ISZERO ISZERO MUL OR SWAP1 SSTORE POP POP POP POP JUMP JUMPDEST DUP3 DUP1 SLOAD PUSH2 0x39C SWAP1 PUSH2 0x844 JUMP JUMPDEST SWAP1 PUSH1 0x0 MSTORE PUSH1 0x20 PUSH1 0x0 KECCAK256 SWAP1 PUSH1 0x1F ADD PUSH1 0x20 SWAP1 DIV DUP2 ADD SWAP3 DUP3 PUSH2 0x3BE JUMPI PUSH1 0x0 DUP6 SSTORE PUSH2 0x405 JUMP JUMPDEST DUP3 PUSH1 0x1F LT PUSH2 0x3D7 JUMPI DUP1 MLOAD PUSH1 0xFF NOT AND DUP4 DUP1 ADD OR DUP6 SSTORE PUSH2 0x405 JUMP JUMPDEST DUP3 DUP1 ADD PUSH1 0x1 ADD DUP6 SSTORE DUP3 ISZERO PUSH2 0x405 JUMPI SWAP2 DUP3 ADD JUMPDEST DUP3 DUP2 GT ISZERO PUSH2 0x404 JUMPI DUP3 MLOAD DUP3 SSTORE SWAP2 PUSH1 0x20 ADD SWAP2 SWAP1 PUSH1 0x1 ADD SWAP1 PUSH2 0x3E9 JUMP JUMPDEST JUMPDEST POP SWAP1 POP PUSH2 0x412 SWAP2 SWAP1 PUSH2 0x416 JUMP JUMPDEST POP SWAP1 JUMP JUMPDEST JUMPDEST DUP1 DUP3 GT ISZERO PUSH2 0x42F JUMPI PUSH1 0x0 DUP2 PUSH1 0x0 SWAP1 SSTORE POP PUSH1 0x1 ADD PUSH2 0x417 JUMP JUMPDEST POP SWAP1 JUMP JUMPDEST PUSH1 0x0 PUSH2 0x446 PUSH2 0x441 DUP5 PUSH2 0x723 JUMP JUMPDEST PUSH2 0x6FE JUMP JUMPDEST SWAP1 POP DUP3 DUP2 MSTORE PUSH1 0x20 DUP2 ADD DUP5 DUP5 DUP5 ADD GT ISZERO PUSH2 0x462 JUMPI PUSH2 0x461 PUSH2 0x90A JUMP JUMPDEST JUMPDEST PUSH2 0x46D DUP5 DUP3 DUP6 PUSH2 0x802 JUMP JUMPDEST POP SWAP4 SWAP3 POP POP POP JUMP JUMPDEST PUSH1 0x0 DUP2 CALLDATALOAD SWAP1 POP PUSH2 0x484 DUP2 PUSH2 0x92A JUMP JUMPDEST SWAP3 SWAP2 POP POP JUMP JUMPDEST PUSH1 0x0 DUP3 PUSH1 0x1F DUP4 ADD SLT PUSH2 0x49F JUMPI PUSH2 0x49E PUSH2 0x905 JUMP JUMPDEST JUMPDEST DUP2 CALLDATALOAD PUSH2 0x4AF DUP5 DUP3 PUSH1 0x20 DUP7 ADD PUSH2 0x433 JUMP JUMPDEST SWAP2 POP POP SWAP3 SWAP2 POP POP JUMP JUMPDEST PUSH1 0x0 DUP2 CALLDATALOAD SWAP1 POP PUSH2 0x4C7 DUP2 PUSH2 0x941 JUMP JUMPDEST SWAP3 SWAP2 POP POP JUMP JUMPDEST PUSH1 0x0 DUP1 PUSH1 0x40 DUP4 DUP6 SUB SLT ISZERO PUSH2 0x4E4 JUMPI PUSH2 0x4E3 PUSH2 0x914 JUMP JUMPDEST JUMPDEST PUSH1 0x0 PUSH2 0x4F2 DUP6 DUP3 DUP7 ADD PUSH2 0x475 JUMP JUMPDEST SWAP3 POP POP PUSH1 0x20 PUSH2 0x503 DUP6 DUP3 DUP7 ADD PUSH2 0x4B8 JUMP JUMPDEST SWAP2 POP POP SWAP3 POP SWAP3 SWAP1 POP JUMP JUMPDEST PUSH1 0x0 PUSH1 0x20 DUP3 DUP5 SUB SLT ISZERO PUSH2 0x523 JUMPI PUSH2 0x522 PUSH2 0x914 JUMP JUMPDEST JUMPDEST PUSH1 0x0 DUP3 ADD CALLDATALOAD PUSH8 0xFFFFFFFFFFFFFFFF DUP2 GT ISZERO PUSH2 0x541 JUMPI PUSH2 0x540 PUSH2 0x90F JUMP JUMPDEST JUMPDEST PUSH2 0x54D DUP5 DUP3 DUP6 ADD PUSH2 0x48A JUMP JUMPDEST SWAP2 POP POP SWAP3 SWAP2 POP POP JUMP JUMPDEST PUSH1 0x0 PUSH2 0x562 DUP4 DUP4 PUSH2 0x66F JUMP JUMPDEST SWAP1 POP SWAP3 SWAP2 POP POP JUMP JUMPDEST PUSH1 0x0 PUSH2 0x575 DUP3 PUSH2 0x764 JUMP JUMPDEST PUSH2 0x57F DUP2 DUP6 PUSH2 0x787 JUMP JUMPDEST SWAP4 POP DUP4 PUSH1 0x20 DUP3 MUL DUP6 ADD PUSH2 0x591 DUP6 PUSH2 0x754 JUMP JUMPDEST DUP1 PUSH1 0x0 JUMPDEST DUP6 DUP2 LT ISZERO PUSH2 0x5CD JUMPI DUP5 DUP5 SUB DUP10 MSTORE DUP2 MLOAD PUSH2 0x5AE DUP6 DUP3 PUSH2 0x556 JUMP JUMPDEST SWAP5 POP PUSH2 0x5B9 DUP4 PUSH2 0x77A JUMP JUMPDEST SWAP3 POP PUSH1 0x20 DUP11 ADD SWAP10 POP POP PUSH1 0x1 DUP2 ADD SWAP1 POP PUSH2 0x595 JUMP JUMPDEST POP DUP3 SWAP8 POP DUP8 SWAP6 POP POP POP POP POP POP SWAP3 SWAP2 POP POP JUMP JUMPDEST PUSH2 0x5E8 DUP2 PUSH2 0x7CC JUMP JUMPDEST DUP3 MSTORE POP POP JUMP JUMPDEST PUSH2 0x5F7 DUP2 PUSH2 0x7CC JUMP JUMPDEST DUP3 MSTORE POP POP JUMP JUMPDEST PUSH1 0x0 PUSH2 0x608 DUP3 PUSH2 0x76F JUMP JUMPDEST PUSH2 0x612 DUP2 DUP6 PUSH2 0x798 JUMP JUMPDEST SWAP4 POP PUSH2 0x622 DUP2 DUP6 PUSH1 0x20 DUP7 ADD PUSH2 0x811 JUMP JUMPDEST PUSH2 0x62B DUP2 PUSH2 0x919 JUMP JUMPDEST DUP5 ADD SWAP2 POP POP SWAP3 SWAP2 POP POP JUMP JUMPDEST PUSH1 0x0 PUSH2 0x641 DUP3 PUSH2 0x76F JUMP JUMPDEST PUSH2 0x64B DUP2 DUP6 PUSH2 0x7A9 JUMP JUMPDEST SWAP4 POP PUSH2 0x65B DUP2 DUP6 PUSH1 0x20 DUP7 ADD PUSH2 0x811 JUMP JUMPDEST PUSH2 0x664 DUP2 PUSH2 0x919 JUMP JUMPDEST DUP5 ADD SWAP2 POP POP SWAP3 SWAP2 POP POP JUMP JUMPDEST PUSH1 0x0 PUSH1 0x40 DUP4 ADD PUSH1 0x0 DUP4 ADD MLOAD DUP5 DUP3 SUB PUSH1 0x0 DUP7 ADD MSTORE PUSH2 0x68C DUP3 DUP3 PUSH2 0x5FD JUMP JUMPDEST SWAP2 POP POP PUSH1 0x20 DUP4 ADD MLOAD PUSH2 0x6A1 PUSH1 0x20 DUP7 ADD DUP3 PUSH2 0x5DF JUMP JUMPDEST POP DUP1 SWAP2 POP POP SWAP3 SWAP2 POP POP JUMP JUMPDEST PUSH1 0x0 PUSH1 0x20 DUP3 ADD SWAP1 POP DUP2 DUP2 SUB PUSH1 0x0 DUP4 ADD MSTORE PUSH2 0x6C6 DUP2 DUP5 PUSH2 0x56A JUMP JUMPDEST SWAP1 POP SWAP3 SWAP2 POP POP JUMP JUMPDEST PUSH1 0x0 PUSH1 0x40 DUP3 ADD SWAP1 POP DUP2 DUP2 SUB PUSH1 0x0 DUP4 ADD MSTORE PUSH2 0x6E8 DUP2 DUP6 PUSH2 0x636 JUMP JUMPDEST SWAP1 POP PUSH2 0x6F7 PUSH1 0x20 DUP4 ADD DUP5 PUSH2 0x5EE JUMP JUMPDEST SWAP4 SWAP3 POP POP POP JUMP JUMPDEST PUSH1 0x0 PUSH2 0x708 PUSH2 0x719 JUMP JUMPDEST SWAP1 POP PUSH2 0x714 DUP3 DUP3 PUSH2 0x876 JUMP JUMPDEST SWAP2 SWAP1 POP JUMP JUMPDEST PUSH1 0x0 PUSH1 0x40 MLOAD SWAP1 POP SWAP1 JUMP JUMPDEST PUSH1 0x0 PUSH8 0xFFFFFFFFFFFFFFFF DUP3 GT ISZERO PUSH2 0x73E JUMPI PUSH2 0x73D PUSH2 0x8D6 JUMP JUMPDEST JUMPDEST PUSH2 0x747 DUP3 PUSH2 0x919 JUMP JUMPDEST SWAP1 POP PUSH1 0x20 DUP2 ADD SWAP1 POP SWAP2 SWAP1 POP JUMP JUMPDEST PUSH1 0x0 DUP2 SWAP1 POP PUSH1 0x20 DUP3 ADD SWAP1 POP SWAP2 SWAP1 POP JUMP JUMPDEST PUSH1 0x0 DUP2 MLOAD SWAP1 POP SWAP2 SWAP1 POP JUMP JUMPDEST PUSH1 0x0 DUP2 MLOAD SWAP1 POP SWAP2 SWAP1 POP JUMP JUMPDEST PUSH1 0x0 PUSH1 0x20 DUP3 ADD SWAP1 POP SWAP2 SWAP1 POP JUMP JUMPDEST PUSH1 0x0 DUP3 DUP3 MSTORE PUSH1 0x20 DUP3 ADD SWAP1 POP SWAP3 SWAP2 POP POP JUMP JUMPDEST PUSH1 0x0 DUP3 DUP3 MSTORE PUSH1 0x20 DUP3 ADD SWAP1 POP SWAP3 SWAP2 POP POP JUMP JUMPDEST PUSH1 0x0 DUP3 DUP3 MSTORE PUSH1 0x20 DUP3 ADD SWAP1 POP SWAP3 SWAP2 POP POP JUMP JUMPDEST PUSH1 0x0 PUSH2 0x7C5 DUP3 PUSH2 0x7D8 JUMP JUMPDEST SWAP1 POP SWAP2 SWAP1 POP JUMP JUMPDEST PUSH1 0x0 DUP2 ISZERO ISZERO SWAP1 POP SWAP2 SWAP1 POP JUMP JUMPDEST PUSH1 0x0 PUSH20 0xFFFFFFFFFFFFFFFFFFFFFFFFFFFFFFFFFFFFFFFF DUP3 AND SWAP1 POP SWAP2 SWAP1 POP JUMP JUMPDEST PUSH1 0x0 DUP2 SWAP1 POP SWAP2 SWAP1 POP JUMP JUMPDEST DUP3 DUP2 DUP4 CALLDATACOPY PUSH1 0x0 DUP4 DUP4 ADD MSTORE POP POP POP JUMP JUMPDEST PUSH1 0x0 JUMPDEST DUP4 DUP2 LT ISZERO PUSH2 0x82F JUMPI DUP1 DUP3 ADD MLOAD DUP2 DUP5 ADD MSTORE PUSH1 0x20 DUP2 ADD SWAP1 POP PUSH2 0x814 JUMP JUMPDEST DUP4 DUP2 GT ISZERO PUSH2 0x83E JUMPI PUSH1 0x0 DUP5 DUP5 ADD MSTORE JUMPDEST POP POP POP POP JUMP JUMPDEST PUSH1 0x0 PUSH1 0x2 DUP3 DIV SWAP1 POP PUSH1 0x1 DUP3 AND DUP1 PUSH2 0x85C JUMPI PUSH1 0x7F DUP3 AND SWAP2 POP JUMPDEST PUSH1 0x20 DUP3 LT DUP2 EQ ISZERO PUSH2 0x870 JUMPI PUSH2 0x86F PUSH2 0x8A7 JUMP JUMPDEST JUMPDEST POP SWAP2 SWAP1 POP JUMP JUMPDEST PUSH2 0x87F DUP3 PUSH2 0x919 JUMP JUMPDEST DUP2 ADD DUP2 DUP2 LT PUSH8 0xFFFFFFFFFFFFFFFF DUP3 GT OR ISZERO PUSH2 0x89E JUMPI PUSH2 0x89D PUSH2 0x8D6 JUMP JUMPDEST JUMPDEST DUP1 PUSH1 0x40 MSTORE POP POP POP JUMP JUMPDEST PUSH32 0x4E487B7100000000000000000000000000000000000000000000000000000000 PUSH1 0x0 MSTORE PUSH1 0x22 PUSH1 0x4 MSTORE PUSH1 0x24 PUSH1 0x0 REVERT JUMPDEST PUSH32 0x4E487B7100000000000000000000000000000000000000000000000000000000 PUSH1 0x0 MSTORE PUSH1 0x41 PUSH1 0x4 MSTORE PUSH1 0x24 PUSH1 0x0 REVERT JUMPDEST PUSH1 0x0 DUP1 REVERT JUMPDEST PUSH1 0x0 DUP1 REVERT JUMPDEST PUSH1 0x0 DUP1 REVERT JUMPDEST PUSH1 0x0 DUP1 REVERT JUMPDEST PUSH1 0x0 PUSH1 0x1F NOT PUSH1 0x1F DUP4 ADD AND SWAP1 POP SWAP2 SWAP1 POP JUMP JUMPDEST PUSH2 0x933 DUP2 PUSH2 0x7BA JUMP JUMPDEST DUP2 EQ PUSH2 0x93E JUMPI PUSH1 0x0 DUP1 REVERT JUMPDEST POP JUMP JUMPDEST PUSH2 0x94A DUP2 PUSH2 0x7F8 JUMP JUMPDEST DUP2 EQ PUSH2 0x955 JUMPI PUSH1 0x0 DUP1 REVERT JUMPDEST POP JUMP INVALID LOG2 PUSH5 0x6970667358 0x22 SLT KECCAK256 0xC6 0xA9 CALLDATACOPY DIFFICULTY 0x28 PUSH6 0xDF36338ACC95 PUSH2 0x124F EXTCODEHASH 0xE5 0xE PUSH31 0x74353E3A5F17D8582CFC464DDB64736F6C6343000807003300000000000000 "
		},
		"gasEstimates": {
			"creation": {
				"codeDepositCost": "489200",
				"executionCost": "524",
				"totalCost": "489724"
			},
			"external": {
				"createTodo(string)": "infinite",
				"getTodoList()": "infinite",
				"toDoStruct(address,uint256)": "infinite"
			}
		},
		"methodIdentifiers": {
			"createTodo(string)": "e34f1221",
			"getTodoList()": "0c7a16be",
			"toDoStruct(address,uint256)": "0557bcc8"
		}
	},
	"abi": [
		{
			"inputs": [
				{
					"internalType": "string",
					"name": "_item",
					"type": "string"
				}
			],
			"name": "createTodo",
			"outputs": [],
			"stateMutability": "nonpayable",
			"type": "function"
		},
		{
			"inputs": [],
			"name": "getTodoList",
			"outputs": [
				{
					"components": [
						{
							"internalType": "string",
							"name": "item",
							"type": "string"
						},
						{
							"internalType": "bool",
							"name": "status",
							"type": "bool"
						}
					],
					"internalType": "struct ToDOList.toDo[]",
					"name": "",
					"type": "tuple[]"
				}
			],
			"stateMutability": "view",
			"type": "function"
		},
		{
			"inputs": [
				{
					"internalType": "address",
					"name": "",
					"type": "address"
				},
				{
					"internalType": "uint256",
					"name": "",
					"type": "uint256"
				}
			],
			"name": "toDoStruct",
			"outputs": [
				{
					"internalType": "string",
					"name": "item",
					"type": "string"
				},
				{
					"internalType": "bool",
					"name": "status",
					"type": "bool"
				}
			],
			"stateMutability": "view",
			"type": "function"
		}
	]
}