{
	"contracts/2_monthStore.sol": {
		"MonthStore": {
			"abi": [
				{
					"inputs": [
						{
							"internalType": "string",
							"name": "_monthName",
							"type": "string"
						}
					],
					"name": "addMonth",
					"outputs": [],
					"stateMutability": "nonpayable",
					"type": "function"
				}
			],
			"devdoc": {
				"kind": "dev",
				"methods": {},
				"version": 1
			},
			"evm": {
				"assembly": "    /* \"contracts/2_monthStore.sol\":62:274  contract MonthStore {\r... */\n  mstore(0x40, 0x80)\n    /* \"contracts/2_monthStore.sol\":139:140  0 */\n  0x00\n    /* \"contracts/2_monthStore.sol\":126:140  uint count = 0 */\n  0x01\n  sstore\n    /* \"contracts/2_monthStore.sol\":62:274  contract MonthStore {\r... */\n  callvalue\n  dup1\n  iszero\n  tag_1\n  jumpi\n  0x00\n  dup1\n  revert\ntag_1:\n  pop\n  dataSize(sub_0)\n  dup1\n  dataOffset(sub_0)\n  0x00\n  codecopy\n  0x00\n  return\nstop\n\nsub_0: assembly {\n        /* \"contracts/2_monthStore.sol\":62:274  contract MonthStore {\r... */\n      mstore(0x40, 0x80)\n      callvalue\n      dup1\n      iszero\n      tag_1\n      jumpi\n      0x00\n      dup1\n      revert\n    tag_1:\n      pop\n      jumpi(tag_2, lt(calldatasize, 0x04))\n      shr(0xe0, calldataload(0x00))\n      dup1\n      0x340a8f6e\n      eq\n      tag_3\n      jumpi\n    tag_2:\n      0x00\n      dup1\n      revert\n        /* \"contracts/2_monthStore.sol\":147:271  function addMonth(string memory _monthName) public {\r... */\n    tag_3:\n      tag_4\n      0x04\n      dup1\n      calldatasize\n      sub\n      dup2\n      add\n      swap1\n      tag_5\n      swap2\n      swap1\n      tag_6\n      jump\t// in\n    tag_5:\n      tag_7\n      jump\t// in\n    tag_4:\n      stop\n    tag_7:\n        /* \"contracts/2_monthStore.sol\":225:226  1 */\n      0x01\n        /* \"contracts/2_monthStore.sol\":217:222  count */\n      dup1\n      sload\n        /* \"contracts/2_monthStore.sol\":217:226  count + 1 */\n      tag_9\n      swap2\n      swap1\n      tag_10\n      jump\t// in\n    tag_9:\n        /* \"contracts/2_monthStore.sol\":209:214  count */\n      0x01\n        /* \"contracts/2_monthStore.sol\":209:226  count = count + 1 */\n      dup2\n      swap1\n      sstore\n      pop\n        /* \"contracts/2_monthStore.sol\":253:263  _monthName */\n      dup1\n        /* \"contracts/2_monthStore.sol\":237:243  months */\n      0x00\n        /* \"contracts/2_monthStore.sol\":237:250  months[count] */\n      dup1\n        /* \"contracts/2_monthStore.sol\":244:249  count */\n      sload(0x01)\n        /* \"contracts/2_monthStore.sol\":237:250  months[count] */\n      dup2\n      mstore\n      0x20\n      add\n      swap1\n      dup2\n      mstore\n      0x20\n      add\n      0x00\n      keccak256\n        /* \"contracts/2_monthStore.sol\":237:263  months[count] = _monthName */\n      swap1\n      dup1\n      mload\n      swap1\n      0x20\n      add\n      swap1\n      tag_11\n      swap3\n      swap2\n      swap1\n      tag_12\n      jump\t// in\n    tag_11:\n      pop\n        /* \"contracts/2_monthStore.sol\":147:271  function addMonth(string memory _monthName) public {\r... */\n      pop\n      jump\t// out\n    tag_12:\n      dup3\n      dup1\n      sload\n      tag_13\n      swap1\n      tag_14\n      jump\t// in\n    tag_13:\n      swap1\n      0x00\n      mstore\n      keccak256(0x00, 0x20)\n      swap1\n      0x1f\n      add\n      0x20\n      swap1\n      div\n      dup2\n      add\n      swap3\n      dup3\n      tag_16\n      jumpi\n      0x00\n      dup6\n      sstore\n      jump(tag_15)\n    tag_16:\n      dup3\n      0x1f\n      lt\n      tag_17\n      jumpi\n      dup1\n      mload\n      not(0xff)\n      and\n      dup4\n      dup1\n      add\n      or\n      dup6\n      sstore\n      jump(tag_15)\n    tag_17:\n      dup3\n      dup1\n      add\n      0x01\n      add\n      dup6\n      sstore\n      dup3\n      iszero\n      tag_15\n      jumpi\n      swap2\n      dup3\n      add\n    tag_18:\n      dup3\n      dup2\n      gt\n      iszero\n      tag_19\n      jumpi\n      dup3\n      mload\n      dup3\n      sstore\n      swap2\n      0x20\n      add\n      swap2\n      swap1\n      0x01\n      add\n      swap1\n      jump(tag_18)\n    tag_19:\n    tag_15:\n      pop\n      swap1\n      pop\n      tag_20\n      swap2\n      swap1\n      tag_21\n      jump\t// in\n    tag_20:\n      pop\n      swap1\n      jump\t// out\n    tag_21:\n    tag_22:\n      dup1\n      dup3\n      gt\n      iszero\n      tag_23\n      jumpi\n      0x00\n      dup2\n      0x00\n      swap1\n      sstore\n      pop\n      0x01\n      add\n      jump(tag_22)\n    tag_23:\n      pop\n      swap1\n      jump\t// out\n        /* \"#utility.yul\":7:419   */\n    tag_25:\n        /* \"#utility.yul\":85:90   */\n      0x00\n        /* \"#utility.yul\":110:176   */\n      tag_27\n        /* \"#utility.yul\":126:175   */\n      tag_28\n        /* \"#utility.yul\":168:174   */\n      dup5\n        /* \"#utility.yul\":126:175   */\n      tag_29\n      jump\t// in\n    tag_28:\n        /* \"#utility.yul\":110:176   */\n      tag_30\n      jump\t// in\n    tag_27:\n        /* \"#utility.yul\":101:176   */\n      swap1\n      pop\n        /* \"#utility.yul\":199:205   */\n      dup3\n        /* \"#utility.yul\":192:197   */\n      dup2\n        /* \"#utility.yul\":185:206   */\n      mstore\n        /* \"#utility.yul\":237:241   */\n      0x20\n        /* \"#utility.yul\":230:235   */\n      dup2\n        /* \"#utility.yul\":226:242   */\n      add\n        /* \"#utility.yul\":275:278   */\n      dup5\n        /* \"#utility.yul\":266:272   */\n      dup5\n        /* \"#utility.yul\":261:264   */\n      dup5\n        /* \"#utility.yul\":257:273   */\n      add\n        /* \"#utility.yul\":254:279   */\n      gt\n        /* \"#utility.yul\":251:363   */\n      iszero\n      tag_31\n      jumpi\n        /* \"#utility.yul\":282:361   */\n      tag_32\n      tag_33\n      jump\t// in\n    tag_32:\n        /* \"#utility.yul\":251:363   */\n    tag_31:\n        /* \"#utility.yul\":372:413   */\n      tag_34\n        /* \"#utility.yul\":406:412   */\n      dup5\n        /* \"#utility.yul\":401:404   */\n      dup3\n        /* \"#utility.yul\":396:399   */\n      dup6\n        /* \"#utility.yul\":372:413   */\n      tag_35\n      jump\t// in\n    tag_34:\n        /* \"#utility.yul\":91:419   */\n      pop\n        /* \"#utility.yul\":7:419   */\n      swap4\n      swap3\n      pop\n      pop\n      pop\n      jump\t// out\n        /* \"#utility.yul\":439:779   */\n    tag_36:\n        /* \"#utility.yul\":495:500   */\n      0x00\n        /* \"#utility.yul\":544:547   */\n      dup3\n        /* \"#utility.yul\":537:541   */\n      0x1f\n        /* \"#utility.yul\":529:535   */\n      dup4\n        /* \"#utility.yul\":525:542   */\n      add\n        /* \"#utility.yul\":521:548   */\n      slt\n        /* \"#utility.yul\":511:633   */\n      tag_38\n      jumpi\n        /* \"#utility.yul\":552:631   */\n      tag_39\n      tag_40\n      jump\t// in\n    tag_39:\n        /* \"#utility.yul\":511:633   */\n    tag_38:\n        /* \"#utility.yul\":669:675   */\n      dup2\n        /* \"#utility.yul\":656:676   */\n      calldataload\n        /* \"#utility.yul\":694:773   */\n      tag_41\n        /* \"#utility.yul\":769:772   */\n      dup5\n        /* \"#utility.yul\":761:767   */\n      dup3\n        /* \"#utility.yul\":754:758   */\n      0x20\n        /* \"#utility.yul\":746:752   */\n      dup7\n        /* \"#utility.yul\":742:759   */\n      add\n        /* \"#utility.yul\":694:773   */\n      tag_25\n      jump\t// in\n    tag_41:\n        /* \"#utility.yul\":685:773   */\n      swap2\n      pop\n        /* \"#utility.yul\":501:779   */\n      pop\n        /* \"#utility.yul\":439:779   */\n      swap3\n      swap2\n      pop\n      pop\n      jump\t// out\n        /* \"#utility.yul\":785:1294   */\n    tag_6:\n        /* \"#utility.yul\":854:860   */\n      0x00\n        /* \"#utility.yul\":903:905   */\n      0x20\n        /* \"#utility.yul\":891:900   */\n      dup3\n        /* \"#utility.yul\":882:889   */\n      dup5\n        /* \"#utility.yul\":878:901   */\n      sub\n        /* \"#utility.yul\":874:906   */\n      slt\n        /* \"#utility.yul\":871:990   */\n      iszero\n      tag_43\n      jumpi\n        /* \"#utility.yul\":909:988   */\n      tag_44\n      tag_45\n      jump\t// in\n    tag_44:\n        /* \"#utility.yul\":871:990   */\n    tag_43:\n        /* \"#utility.yul\":1057:1058   */\n      0x00\n        /* \"#utility.yul\":1046:1055   */\n      dup3\n        /* \"#utility.yul\":1042:1059   */\n      add\n        /* \"#utility.yul\":1029:1060   */\n      calldataload\n        /* \"#utility.yul\":1087:1105   */\n      0xffffffffffffffff\n        /* \"#utility.yul\":1079:1085   */\n      dup2\n        /* \"#utility.yul\":1076:1106   */\n      gt\n        /* \"#utility.yul\":1073:1190   */\n      iszero\n      tag_46\n      jumpi\n        /* \"#utility.yul\":1109:1188   */\n      tag_47\n      tag_48\n      jump\t// in\n    tag_47:\n        /* \"#utility.yul\":1073:1190   */\n    tag_46:\n        /* \"#utility.yul\":1214:1277   */\n      tag_49\n        /* \"#utility.yul\":1269:1276   */\n      dup5\n        /* \"#utility.yul\":1260:1266   */\n      dup3\n        /* \"#utility.yul\":1249:1258   */\n      dup6\n        /* \"#utility.yul\":1245:1267   */\n      add\n        /* \"#utility.yul\":1214:1277   */\n      tag_36\n      jump\t// in\n    tag_49:\n        /* \"#utility.yul\":1204:1277   */\n      swap2\n      pop\n        /* \"#utility.yul\":1000:1287   */\n      pop\n        /* \"#utility.yul\":785:1294   */\n      swap3\n      swap2\n      pop\n      pop\n      jump\t// out\n        /* \"#utility.yul\":1300:1429   */\n    tag_30:\n        /* \"#utility.yul\":1334:1340   */\n      0x00\n        /* \"#utility.yul\":1361:1381   */\n      tag_51\n      tag_52\n      jump\t// in\n    tag_51:\n        /* \"#utility.yul\":1351:1381   */\n      swap1\n      pop\n        /* \"#utility.yul\":1390:1423   */\n      tag_53\n        /* \"#utility.yul\":1418:1422   */\n      dup3\n        /* \"#utility.yul\":1410:1416   */\n      dup3\n        /* \"#utility.yul\":1390:1423   */\n      tag_54\n      jump\t// in\n    tag_53:\n        /* \"#utility.yul\":1300:1429   */\n      swap2\n      swap1\n      pop\n      jump\t// out\n        /* \"#utility.yul\":1435:1510   */\n    tag_52:\n        /* \"#utility.yul\":1468:1474   */\n      0x00\n        /* \"#utility.yul\":1501:1503   */\n      0x40\n        /* \"#utility.yul\":1495:1504   */\n      mload\n        /* \"#utility.yul\":1485:1504   */\n      swap1\n      pop\n        /* \"#utility.yul\":1435:1510   */\n      swap1\n      jump\t// out\n        /* \"#utility.yul\":1516:1824   */\n    tag_29:\n        /* \"#utility.yul\":1578:1582   */\n      0x00\n        /* \"#utility.yul\":1668:1686   */\n      0xffffffffffffffff\n        /* \"#utility.yul\":1660:1666   */\n      dup3\n        /* \"#utility.yul\":1657:1687   */\n      gt\n        /* \"#utility.yul\":1654:1710   */\n      iszero\n      tag_57\n      jumpi\n        /* \"#utility.yul\":1690:1708   */\n      tag_58\n      tag_59\n      jump\t// in\n    tag_58:\n        /* \"#utility.yul\":1654:1710   */\n    tag_57:\n        /* \"#utility.yul\":1728:1757   */\n      tag_60\n        /* \"#utility.yul\":1750:1756   */\n      dup3\n        /* \"#utility.yul\":1728:1757   */\n      tag_61\n      jump\t// in\n    tag_60:\n        /* \"#utility.yul\":1720:1757   */\n      swap1\n      pop\n        /* \"#utility.yul\":1812:1816   */\n      0x20\n        /* \"#utility.yul\":1806:1810   */\n      dup2\n        /* \"#utility.yul\":1802:1817   */\n      add\n        /* \"#utility.yul\":1794:1817   */\n      swap1\n      pop\n        /* \"#utility.yul\":1516:1824   */\n      swap2\n      swap1\n      pop\n      jump\t// out\n        /* \"#utility.yul\":1830:2135   */\n    tag_10:\n        /* \"#utility.yul\":1870:1873   */\n      0x00\n        /* \"#utility.yul\":1889:1909   */\n      tag_63\n        /* \"#utility.yul\":1907:1908   */\n      dup3\n        /* \"#utility.yul\":1889:1909   */\n      tag_64\n      jump\t// in\n    tag_63:\n        /* \"#utility.yul\":1884:1909   */\n      swap2\n      pop\n        /* \"#utility.yul\":1923:1943   */\n      tag_65\n        /* \"#utility.yul\":1941:1942   */\n      dup4\n        /* \"#utility.yul\":1923:1943   */\n      tag_64\n      jump\t// in\n    tag_65:\n        /* \"#utility.yul\":1918:1943   */\n      swap3\n      pop\n        /* \"#utility.yul\":2077:2078   */\n      dup3\n        /* \"#utility.yul\":2009:2075   */\n      0xffffffffffffffffffffffffffffffffffffffffffffffffffffffffffffffff\n        /* \"#utility.yul\":2005:2079   */\n      sub\n        /* \"#utility.yul\":2002:2003   */\n      dup3\n        /* \"#utility.yul\":1999:2080   */\n      gt\n        /* \"#utility.yul\":1996:2103   */\n      iszero\n      tag_66\n      jumpi\n        /* \"#utility.yul\":2083:2101   */\n      tag_67\n      tag_68\n      jump\t// in\n    tag_67:\n        /* \"#utility.yul\":1996:2103   */\n    tag_66:\n        /* \"#utility.yul\":2127:2128   */\n      dup3\n        /* \"#utility.yul\":2124:2125   */\n      dup3\n        /* \"#utility.yul\":2120:2129   */\n      add\n        /* \"#utility.yul\":2113:2129   */\n      swap1\n      pop\n        /* \"#utility.yul\":1830:2135   */\n      swap3\n      swap2\n      pop\n      pop\n      jump\t// out\n        /* \"#utility.yul\":2141:2218   */\n    tag_64:\n        /* \"#utility.yul\":2178:2185   */\n      0x00\n        /* \"#utility.yul\":2207:2212   */\n      dup2\n        /* \"#utility.yul\":2196:2212   */\n      swap1\n      pop\n        /* \"#utility.yul\":2141:2218   */\n      swap2\n      swap1\n      pop\n      jump\t// out\n        /* \"#utility.yul\":2224:2378   */\n    tag_35:\n        /* \"#utility.yul\":2308:2314   */\n      dup3\n        /* \"#utility.yul\":2303:2306   */\n      dup2\n        /* \"#utility.yul\":2298:2301   */\n      dup4\n        /* \"#utility.yul\":2285:2315   */\n      calldatacopy\n        /* \"#utility.yul\":2370:2371   */\n      0x00\n        /* \"#utility.yul\":2361:2367   */\n      dup4\n        /* \"#utility.yul\":2356:2359   */\n      dup4\n        /* \"#utility.yul\":2352:2368   */\n      add\n        /* \"#utility.yul\":2345:2372   */\n      mstore\n        /* \"#utility.yul\":2224:2378   */\n      pop\n      pop\n      pop\n      jump\t// out\n        /* \"#utility.yul\":2384:2704   */\n    tag_14:\n        /* \"#utility.yul\":2428:2434   */\n      0x00\n        /* \"#utility.yul\":2465:2466   */\n      0x02\n        /* \"#utility.yul\":2459:2463   */\n      dup3\n        /* \"#utility.yul\":2455:2467   */\n      div\n        /* \"#utility.yul\":2445:2467   */\n      swap1\n      pop\n        /* \"#utility.yul\":2512:2513   */\n      0x01\n        /* \"#utility.yul\":2506:2510   */\n      dup3\n        /* \"#utility.yul\":2502:2514   */\n      and\n        /* \"#utility.yul\":2533:2551   */\n      dup1\n        /* \"#utility.yul\":2523:2604   */\n      tag_72\n      jumpi\n        /* \"#utility.yul\":2589:2593   */\n      0x7f\n        /* \"#utility.yul\":2581:2587   */\n      dup3\n        /* \"#utility.yul\":2577:2594   */\n      and\n        /* \"#utility.yul\":2567:2594   */\n      swap2\n      pop\n        /* \"#utility.yul\":2523:2604   */\n    tag_72:\n        /* \"#utility.yul\":2651:2653   */\n      0x20\n        /* \"#utility.yul\":2643:2649   */\n      dup3\n        /* \"#utility.yul\":2640:2654   */\n      lt\n        /* \"#utility.yul\":2620:2638   */\n      dup2\n        /* \"#utility.yul\":2617:2655   */\n      eq\n        /* \"#utility.yul\":2614:2698   */\n      iszero\n      tag_73\n      jumpi\n        /* \"#utility.yul\":2670:2688   */\n      tag_74\n      tag_75\n      jump\t// in\n    tag_74:\n        /* \"#utility.yul\":2614:2698   */\n    tag_73:\n        /* \"#utility.yul\":2435:2704   */\n      pop\n        /* \"#utility.yul\":2384:2704   */\n      swap2\n      swap1\n      pop\n      jump\t// out\n        /* \"#utility.yul\":2710:2991   */\n    tag_54:\n        /* \"#utility.yul\":2793:2820   */\n      tag_77\n        /* \"#utility.yul\":2815:2819   */\n      dup3\n        /* \"#utility.yul\":2793:2820   */\n      tag_61\n      jump\t// in\n    tag_77:\n        /* \"#utility.yul\":2785:2791   */\n      dup2\n        /* \"#utility.yul\":2781:2821   */\n      add\n        /* \"#utility.yul\":2923:2929   */\n      dup2\n        /* \"#utility.yul\":2911:2921   */\n      dup2\n        /* \"#utility.yul\":2908:2930   */\n      lt\n        /* \"#utility.yul\":2887:2905   */\n      0xffffffffffffffff\n        /* \"#utility.yul\":2875:2885   */\n      dup3\n        /* \"#utility.yul\":2872:2906   */\n      gt\n        /* \"#utility.yul\":2869:2931   */\n      or\n        /* \"#utility.yul\":2866:2954   */\n      iszero\n      tag_78\n      jumpi\n        /* \"#utility.yul\":2934:2952   */\n      tag_79\n      tag_59\n      jump\t// in\n    tag_79:\n        /* \"#utility.yul\":2866:2954   */\n    tag_78:\n        /* \"#utility.yul\":2974:2984   */\n      dup1\n        /* \"#utility.yul\":2970:2972   */\n      0x40\n        /* \"#utility.yul\":2963:2985   */\n      mstore\n        /* \"#utility.yul\":2753:2991   */\n      pop\n        /* \"#utility.yul\":2710:2991   */\n      pop\n      pop\n      jump\t// out\n        /* \"#utility.yul\":2997:3177   */\n    tag_68:\n        /* \"#utility.yul\":3045:3122   */\n      0x4e487b7100000000000000000000000000000000000000000000000000000000\n        /* \"#utility.yul\":3042:3043   */\n      0x00\n        /* \"#utility.yul\":3035:3123   */\n      mstore\n        /* \"#utility.yul\":3142:3146   */\n      0x11\n        /* \"#utility.yul\":3139:3140   */\n      0x04\n        /* \"#utility.yul\":3132:3147   */\n      mstore\n        /* \"#utility.yul\":3166:3170   */\n      0x24\n        /* \"#utility.yul\":3163:3164   */\n      0x00\n        /* \"#utility.yul\":3156:3171   */\n      revert\n        /* \"#utility.yul\":3183:3363   */\n    tag_75:\n        /* \"#utility.yul\":3231:3308   */\n      0x4e487b7100000000000000000000000000000000000000000000000000000000\n        /* \"#utility.yul\":3228:3229   */\n      0x00\n        /* \"#utility.yul\":3221:3309   */\n      mstore\n        /* \"#utility.yul\":3328:3332   */\n      0x22\n        /* \"#utility.yul\":3325:3326   */\n      0x04\n        /* \"#utility.yul\":3318:3333   */\n      mstore\n        /* \"#utility.yul\":3352:3356   */\n      0x24\n        /* \"#utility.yul\":3349:3350   */\n      0x00\n        /* \"#utility.yul\":3342:3357   */\n      revert\n        /* \"#utility.yul\":3369:3549   */\n    tag_59:\n        /* \"#utility.yul\":3417:3494   */\n      0x4e487b7100000000000000000000000000000000000000000000000000000000\n        /* \"#utility.yul\":3414:3415   */\n      0x00\n        /* \"#utility.yul\":3407:3495   */\n      mstore\n        /* \"#utility.yul\":3514:3518   */\n      0x41\n        /* \"#utility.yul\":3511:3512   */\n      0x04\n        /* \"#utility.yul\":3504:3519   */\n      mstore\n        /* \"#utility.yul\":3538:3542   */\n      0x24\n        /* \"#utility.yul\":3535:3536   */\n      0x00\n        /* \"#utility.yul\":3528:3543   */\n      revert\n        /* \"#utility.yul\":3555:3672   */\n    tag_40:\n        /* \"#utility.yul\":3664:3665   */\n      0x00\n        /* \"#utility.yul\":3661:3662   */\n      dup1\n        /* \"#utility.yul\":3654:3666   */\n      revert\n        /* \"#utility.yul\":3678:3795   */\n    tag_33:\n        /* \"#utility.yul\":3787:3788   */\n      0x00\n        /* \"#utility.yul\":3784:3785   */\n      dup1\n        /* \"#utility.yul\":3777:3789   */\n      revert\n        /* \"#utility.yul\":3801:3918   */\n    tag_48:\n        /* \"#utility.yul\":3910:3911   */\n      0x00\n        /* \"#utility.yul\":3907:3908   */\n      dup1\n        /* \"#utility.yul\":3900:3912   */\n      revert\n        /* \"#utility.yul\":3924:4041   */\n    tag_45:\n        /* \"#utility.yul\":4033:4034   */\n      0x00\n        /* \"#utility.yul\":4030:4031   */\n      dup1\n        /* \"#utility.yul\":4023:4035   */\n      revert\n        /* \"#utility.yul\":4047:4149   */\n    tag_61:\n        /* \"#utility.yul\":4088:4094   */\n      0x00\n        /* \"#utility.yul\":4139:4141   */\n      0x1f\n        /* \"#utility.yul\":4135:4142   */\n      not\n        /* \"#utility.yul\":4130:4132   */\n      0x1f\n        /* \"#utility.yul\":4123:4128   */\n      dup4\n        /* \"#utility.yul\":4119:4133   */\n      add\n        /* \"#utility.yul\":4115:4143   */\n      and\n        /* \"#utility.yul\":4105:4143   */\n      swap1\n      pop\n        /* \"#utility.yul\":4047:4149   */\n      swap2\n      swap1\n      pop\n      jump\t// out\n\n    auxdata: 0xa2646970667358221220d2ae8a33ccb7bd2f3e94cc6800a0e1ae005c63e50a013bfba1976e952f9a161464736f6c63430008070033\n}\n",
				"bytecode": {
					"linkReferences": {},
					"object": "6080604052600060015534801561001557600080fd5b506103f8806100256000396000f3fe608060405234801561001057600080fd5b506004361061002b5760003560e01c8063340a8f6e14610030575b600080fd5b61004a6004803603810190610045919061019f565b61004c565b005b6001805461005a919061023e565b600181905550806000806001548152602001908152602001600020908051906020019061008892919061008c565b5050565b828054610098906102ad565b90600052602060002090601f0160209004810192826100ba5760008555610101565b82601f106100d357805160ff1916838001178555610101565b82800160010185558215610101579182015b828111156101005782518255916020019190600101906100e5565b5b50905061010e9190610112565b5090565b5b8082111561012b576000816000905550600101610113565b5090565b600061014261013d8461020d565b6101e8565b90508281526020810184848401111561015e5761015d6103a2565b5b61016984828561029e565b509392505050565b600082601f8301126101865761018561039d565b5b813561019684826020860161012f565b91505092915050565b6000602082840312156101b5576101b46103ac565b5b600082013567ffffffffffffffff8111156101d3576101d26103a7565b5b6101df84828501610171565b91505092915050565b60006101f2610203565b90506101fe82826102df565b919050565b6000604051905090565b600067ffffffffffffffff8211156102285761022761036e565b5b610231826103b1565b9050602081019050919050565b600061024982610294565b915061025483610294565b9250827fffffffffffffffffffffffffffffffffffffffffffffffffffffffffffffffff0382111561028957610288610310565b5b828201905092915050565b6000819050919050565b82818337600083830152505050565b600060028204905060018216806102c557607f821691505b602082108114156102d9576102d861033f565b5b50919050565b6102e8826103b1565b810181811067ffffffffffffffff821117156103075761030661036e565b5b80604052505050565b7f4e487b7100000000000000000000000000000000000000000000000000000000600052601160045260246000fd5b7f4e487b7100000000000000000000000000000000000000000000000000000000600052602260045260246000fd5b7f4e487b7100000000000000000000000000000000000000000000000000000000600052604160045260246000fd5b600080fd5b600080fd5b600080fd5b600080fd5b6000601f19601f830116905091905056fea2646970667358221220d2ae8a33ccb7bd2f3e94cc6800a0e1ae005c63e50a013bfba1976e952f9a161464736f6c63430008070033",
					"opcodes": "PUSH1 0x80 PUSH1 0x40 MSTORE PUSH1 0x0 PUSH1 0x1 SSTORE CALLVALUE DUP1 ISZERO PUSH2 0x15 JUMPI PUSH1 0x0 DUP1 REVERT JUMPDEST POP PUSH2 0x3F8 DUP1 PUSH2 0x25 PUSH1 0x0 CODECOPY PUSH1 0x0 RETURN INVALID PUSH1 0x80 PUSH1 0x40 MSTORE CALLVALUE DUP1 ISZERO PUSH2 0x10 JUMPI PUSH1 0x0 DUP1 REVERT JUMPDEST POP PUSH1 0x4 CALLDATASIZE LT PUSH2 0x2B JUMPI PUSH1 0x0 CALLDATALOAD PUSH1 0xE0 SHR DUP1 PUSH4 0x340A8F6E EQ PUSH2 0x30 JUMPI JUMPDEST PUSH1 0x0 DUP1 REVERT JUMPDEST PUSH2 0x4A PUSH1 0x4 DUP1 CALLDATASIZE SUB DUP2 ADD SWAP1 PUSH2 0x45 SWAP2 SWAP1 PUSH2 0x19F JUMP JUMPDEST PUSH2 0x4C JUMP JUMPDEST STOP JUMPDEST PUSH1 0x1 DUP1 SLOAD PUSH2 0x5A SWAP2 SWAP1 PUSH2 0x23E JUMP JUMPDEST PUSH1 0x1 DUP2 SWAP1 SSTORE POP DUP1 PUSH1 0x0 DUP1 PUSH1 0x1 SLOAD DUP2 MSTORE PUSH1 0x20 ADD SWAP1 DUP2 MSTORE PUSH1 0x20 ADD PUSH1 0x0 KECCAK256 SWAP1 DUP1 MLOAD SWAP1 PUSH1 0x20 ADD SWAP1 PUSH2 0x88 SWAP3 SWAP2 SWAP1 PUSH2 0x8C JUMP JUMPDEST POP POP JUMP JUMPDEST DUP3 DUP1 SLOAD PUSH2 0x98 SWAP1 PUSH2 0x2AD JUMP JUMPDEST SWAP1 PUSH1 0x0 MSTORE PUSH1 0x20 PUSH1 0x0 KECCAK256 SWAP1 PUSH1 0x1F ADD PUSH1 0x20 SWAP1 DIV DUP2 ADD SWAP3 DUP3 PUSH2 0xBA JUMPI PUSH1 0x0 DUP6 SSTORE PUSH2 0x101 JUMP JUMPDEST DUP3 PUSH1 0x1F LT PUSH2 0xD3 JUMPI DUP1 MLOAD PUSH1 0xFF NOT AND DUP4 DUP1 ADD OR DUP6 SSTORE PUSH2 0x101 JUMP JUMPDEST DUP3 DUP1 ADD PUSH1 0x1 ADD DUP6 SSTORE DUP3 ISZERO PUSH2 0x101 JUMPI SWAP2 DUP3 ADD JUMPDEST DUP3 DUP2 GT ISZERO PUSH2 0x100 JUMPI DUP3 MLOAD DUP3 SSTORE SWAP2 PUSH1 0x20 ADD SWAP2 SWAP1 PUSH1 0x1 ADD SWAP1 PUSH2 0xE5 JUMP JUMPDEST JUMPDEST POP SWAP1 POP PUSH2 0x10E SWAP2 SWAP1 PUSH2 0x112 JUMP JUMPDEST POP SWAP1 JUMP JUMPDEST JUMPDEST DUP1 DUP3 GT ISZERO PUSH2 0x12B JUMPI PUSH1 0x0 DUP2 PUSH1 0x0 SWAP1 SSTORE POP PUSH1 0x1 ADD PUSH2 0x113 JUMP JUMPDEST POP SWAP1 JUMP JUMPDEST PUSH1 0x0 PUSH2 0x142 PUSH2 0x13D DUP5 PUSH2 0x20D JUMP JUMPDEST PUSH2 0x1E8 JUMP JUMPDEST SWAP1 POP DUP3 DUP2 MSTORE PUSH1 0x20 DUP2 ADD DUP5 DUP5 DUP5 ADD GT ISZERO PUSH2 0x15E JUMPI PUSH2 0x15D PUSH2 0x3A2 JUMP JUMPDEST JUMPDEST PUSH2 0x169 DUP5 DUP3 DUP6 PUSH2 0x29E JUMP JUMPDEST POP SWAP4 SWAP3 POP POP POP JUMP JUMPDEST PUSH1 0x0 DUP3 PUSH1 0x1F DUP4 ADD SLT PUSH2 0x186 JUMPI PUSH2 0x185 PUSH2 0x39D JUMP JUMPDEST JUMPDEST DUP2 CALLDATALOAD PUSH2 0x196 DUP5 DUP3 PUSH1 0x20 DUP7 ADD PUSH2 0x12F JUMP JUMPDEST SWAP2 POP POP SWAP3 SWAP2 POP POP JUMP JUMPDEST PUSH1 0x0 PUSH1 0x20 DUP3 DUP5 SUB SLT ISZERO PUSH2 0x1B5 JUMPI PUSH2 0x1B4 PUSH2 0x3AC JUMP JUMPDEST JUMPDEST PUSH1 0x0 DUP3 ADD CALLDATALOAD PUSH8 0xFFFFFFFFFFFFFFFF DUP2 GT ISZERO PUSH2 0x1D3 JUMPI PUSH2 0x1D2 PUSH2 0x3A7 JUMP JUMPDEST JUMPDEST PUSH2 0x1DF DUP5 DUP3 DUP6 ADD PUSH2 0x171 JUMP JUMPDEST SWAP2 POP POP SWAP3 SWAP2 POP POP JUMP JUMPDEST PUSH1 0x0 PUSH2 0x1F2 PUSH2 0x203 JUMP JUMPDEST SWAP1 POP PUSH2 0x1FE DUP3 DUP3 PUSH2 0x2DF JUMP JUMPDEST SWAP2 SWAP1 POP JUMP JUMPDEST PUSH1 0x0 PUSH1 0x40 MLOAD SWAP1 POP SWAP1 JUMP JUMPDEST PUSH1 0x0 PUSH8 0xFFFFFFFFFFFFFFFF DUP3 GT ISZERO PUSH2 0x228 JUMPI PUSH2 0x227 PUSH2 0x36E JUMP JUMPDEST JUMPDEST PUSH2 0x231 DUP3 PUSH2 0x3B1 JUMP JUMPDEST SWAP1 POP PUSH1 0x20 DUP2 ADD SWAP1 POP SWAP2 SWAP1 POP JUMP JUMPDEST PUSH1 0x0 PUSH2 0x249 DUP3 PUSH2 0x294 JUMP JUMPDEST SWAP2 POP PUSH2 0x254 DUP4 PUSH2 0x294 JUMP JUMPDEST SWAP3 POP DUP3 PUSH32 0xFFFFFFFFFFFFFFFFFFFFFFFFFFFFFFFFFFFFFFFFFFFFFFFFFFFFFFFFFFFFFFFF SUB DUP3 GT ISZERO PUSH2 0x289 JUMPI PUSH2 0x288 PUSH2 0x310 JUMP JUMPDEST JUMPDEST DUP3 DUP3 ADD SWAP1 POP SWAP3 SWAP2 POP POP JUMP JUMPDEST PUSH1 0x0 DUP2 SWAP1 POP SWAP2 SWAP1 POP JUMP JUMPDEST DUP3 DUP2 DUP4 CALLDATACOPY PUSH1 0x0 DUP4 DUP4 ADD MSTORE POP POP POP JUMP JUMPDEST PUSH1 0x0 PUSH1 0x2 DUP3 DIV SWAP1 POP PUSH1 0x1 DUP3 AND DUP1 PUSH2 0x2C5 JUMPI PUSH1 0x7F DUP3 AND SWAP2 POP JUMPDEST PUSH1 0x20 DUP3 LT DUP2 EQ ISZERO PUSH2 0x2D9 JUMPI PUSH2 0x2D8 PUSH2 0x33F JUMP JUMPDEST JUMPDEST POP SWAP2 SWAP1 POP JUMP JUMPDEST PUSH2 0x2E8 DUP3 PUSH2 0x3B1 JUMP JUMPDEST DUP2 ADD DUP2 DUP2 LT PUSH8 0xFFFFFFFFFFFFFFFF DUP3 GT OR ISZERO PUSH2 0x307 JUMPI PUSH2 0x306 PUSH2 0x36E JUMP JUMPDEST JUMPDEST DUP1 PUSH1 0x40 MSTORE POP POP POP JUMP JUMPDEST PUSH32 0x4E487B7100000000000000000000000000000000000000000000000000000000 PUSH1 0x0 MSTORE PUSH1 0x11 PUSH1 0x4 MSTORE PUSH1 0x24 PUSH1 0x0 REVERT JUMPDEST PUSH32 0x4E487B7100000000000000000000000000000000000000000000000000000000 PUSH1 0x0 MSTORE PUSH1 0x22 PUSH1 0x4 MSTORE PUSH1 0x24 PUSH1 0x0 REVERT JUMPDEST PUSH32 0x4E487B7100000000000000000000000000000000000000000000000000000000 PUSH1 0x0 MSTORE PUSH1 0x41 PUSH1 0x4 MSTORE PUSH1 0x24 PUSH1 0x0 REVERT JUMPDEST PUSH1 0x0 DUP1 REVERT JUMPDEST PUSH1 0x0 DUP1 REVERT JUMPDEST PUSH1 0x0 DUP1 REVERT JUMPDEST PUSH1 0x0 DUP1 REVERT JUMPDEST PUSH1 0x0 PUSH1 0x1F NOT PUSH1 0x1F DUP4 ADD AND SWAP1 POP SWAP2 SWAP1 POP JUMP INVALID LOG2 PUSH5 0x6970667358 0x22 SLT KECCAK256 0xD2 0xAE DUP11 CALLER 0xCC 0xB7 0xBD 0x2F RETURNDATACOPY SWAP5 0xCC PUSH9 0xA0E1AE005C63E50A ADD EXTCODESIZE 0xFB LOG1 SWAP8 PUSH15 0x952F9A161464736F6C634300080700 CALLER "
				},
				"gasEstimates": {
					"creation": {
						"codeDepositCost": "203200",
						"executionCost": "5251",
						"totalCost": "208451"
					},
					"external": {
						"addMonth(string)": "infinite"
					}
				},
				"methodIdentifiers": {
					"addMonth(string)": "340a8f6e"
				}
			},
			"storageLayout": {
				"storage": [
					{
						"astId": 5,
						"contract": "contracts/2_monthStore.sol:MonthStore",
						"label": "months",
						"offset": 0,
						"slot": "0",
						"type": "t_mapping(t_uint256,t_string_storage)"
					},
					{
						"astId": 8,
						"contract": "contracts/2_monthStore.sol:MonthStore",
						"label": "count",
						"offset": 0,
						"slot": "1",
						"type": "t_uint256"
					}
				],
				"types": {
					"t_mapping(t_uint256,t_string_storage)": {
						"encoding": "mapping",
						"key": "t_uint256",
						"label": "mapping(uint256 => string)",
						"numberOfBytes": "32",
						"value": "t_string_storage"
					},
					"t_string_storage": {
						"encoding": "bytes",
						"label": "string",
						"numberOfBytes": "32"
					},
					"t_uint256": {
						"encoding": "inplace",
						"label": "uint256",
						"numberOfBytes": "32"
					}
				}
			},
			"userdoc": {
				"kind": "user",
				"methods": {},
				"version": 1
			}
		}
	}
}